:020000040000fa
:080000000401040000000000ef
:020000040000fa
:100200000000000000000000cf89200080ff2000d7
:100210000001880000000000050007000c00070036
:1002200082040200000000000040da000000fe002e
:100230004440a900000020000000e000030032005c
:1002400000002000a00188004440a8000000060033
:1002500040fe200001002000160037006200400030
:10026000e0804800910188009001ba0062004000df
:10027000e0804800910188009002ba0062004000ce
:10028000e08048000002eb006028e10005003a0031
:100290008301e90007003300038009000059eb00e7
:1002a000040037006128e100010032000082eb0009
:1002b00005000700910188001001ba000200e0006b
:1002c000e6ff3a00000005009101880080027800f6
:1002d00062004000e08048003559ba008301e9001f
:1002e000080032002559ba008301e90005003200f8
:1002f0000400e000f4ff320015d9ba008301e900e0
:10030000f1ff3a0000000600889fbe008a9fbe00f1
:10031000010578000100e0000400350008003c0001
:100320000000e000200032000500370060001000ef
:10033000e080180002003b0001f02c001a0037009a
:100340000004be006011b8006b0920000982cf00d4
:10035000020039000882cf000441b0006942520017
:100360000e00320008003b008281710061016400d0
:100370008904d1000884d3008b05e8000442e8001a
:10038000f9ff3a00050037000804440089844c0056
:100390008b05e9000442e900fbff3a0097000700e3
:1003a0000af0a70001f0a0004f05be004f04be00f8
:1003b0000000060003f0a200889fbe008a9fbe00d6
:1003c0008c1f7800b3000700ba0033006450e100ce
:1003d0004f0032006420e1005200320003826c00c2
:1003e00007003b000905d0000306d000820f54002f
:1003f0000c065d000200390002003200890178001d
:10040000030678008582550004003d000003fd00ce
:100410008103fd008502ea008b854200840f720093
:1004200002003b0060001000e08018006011b8007e
:100430000005eb007a28e1000a0039000600780088
:10044000c75ddd00f707b200878075002d0037001b
:10045000828171000a017800610560008180d1000d
:100460000080d3008502e900f9ff3b00060440004c
:100470008784480002003b0060041400e0841c00f4
:100480000988a300070032008a817100828171000f
:10049000610164008904d1000884d3008b05e80061
:1004a000170037000978a30013003a000b00e000a2
:1004b000130034008b05e9000804440089844c00d3
:1004c0000a4474000978a3000d003a000b00e00014
:1004d000070034008b05e9000804440089844c00bf
:1004e00001003a000b0020000978a300f7ff32005a
:1004f0000001eb0002003700828171000a017800e0
:100500003e0007000cf0a70001f0a00072003700c9
:100510006420e10002003a00838f6c007200330017
:100520000801be000200be006b003700889fbe00bd
:100530008a9fbe008c1f7800560007005d003300c4
:1005400003866c006450e100240032006420e10066
:10055000270032006150e100220032006120e100fa
:10056000210032008b854200eb07b1000134b80056
:10057000003ab8000804420089844a00013ab800f1
:100580000030b8008880400009014a0004003300b0
:100590000000400081804800020149008b05e9000d
:1005a000c909dd0083017000010032001300200042
:1005b000c814de004814dd004709de001200b20056
:1005c000c808de00088470000c00070001f0a100dc
:1005d0000cf0a70001f0a0003f0037006120e1000f
:1005e000410032000801be000200be00f7ff3700e4
:1005f0006150e100fcff3a003b0037008100200021
:10060000618055000b003d000b00200061fe2f00b3
:100610000100e1001d00340082817100610164006d
:100620008904d1000884d3000000e800faff3a00f2
:10063000710020006100640003007000020060008f
:100640000900320061044400e0844c000988a500e0
:10065000050032008b05e8006808e10002003a005e
:100660008904d1000884d300f20f20000258e10071
:1006700005003d00c75ddd00f907b2008980750007
:1006800008007800000006000bf827008b007800b7
:10069000000005000004be00160007000003be00b5
:1006a0000405be000200be0012000700844f750062
:1006b000000006000200be006450e10005003600a4
:1006c0006420e100020036000968a30001003a003e
:1006d0000800be000160a0004f0678004f05be0074
:1006e0004f04be0000000600f0ff2f00f1ff2700be
:1006f000f9ff3700c70ade00f107b200f50fb200bc
:1007000008003200e1cf4200020032000170a00078
:1007100024000500810f700001003200040805006c
:1007200044000500810f700002003a00140005002b
:100730008502e9000000400081c04800fcff3b004a
:100740000170a000240005000000fa00010037003d
:1007500071020700208520008041eb0012c0b30029
:1007600080c0eb008c0207000080fb000000d1007d
:10077000610060000004e000f5ff3a0020852000e1
:1007800012c0b30080c0eb00c202070001003700b6
:10079000610207008040eb00c084200036030700a0
:1007a0000080fb000000d100610060000004e00058
:1007b000f7ff3a00b60107000004e0000400320031
:1007c0008189200042c0b300300020007001070082
:1007d000c084200042030700deff37003600f80027
:1007e000809fbe00829fbe00849fbe00869fbe0089
:1007f000881f78003400f80000c0b300a001880012
:100800000a00fa00b9000700000f7800d1000700c5
:10081000f01f20009e0f100017003e000020200057
:100820001e0450006140b900b7fe07003007980071
:10083000410798000800e00007003d00020020008a
:10084000037824003e009000ce009000dafe0700fe
:100850003007980041079800a2702d0033ba2b0092
:100860003e009000ce00900030ff0700c04488009a
:10087000d14488001600370000e02f001e0440001d
:100880006140b900a0fe07001007980021079800fa
:100890000800e00007003d0002002000037824006b
:1008a0001e009000ae009000c3fe070010079800e5
:1008b00021079800a2702d0033ba23001e0090007b
:1008c000ae00900019ff0700c0448800d1448800a2
:1008d0002085200022c0b30080c0eb006d0207001d
:1008e0000080fa003400f9004f0478004f03be0086
:1008f0004f02be004f01be004f00be003600f9009f
:10090000004006000000fa0041c0b30010c0b30070
:100910003100070010c0b3005d0007000002eb00cb
:100920008001eb000041eb008040eb0020c0b300f1
:100930008c00070028030700a2c0b300018020003c
:10094000403a20003603070011c0b300c0842000e5
:10095000b7020700208520000041eb00018820003d
:10096000f701070084030700feff370000000600c0
:10097000310620008100e900feff3a000000060079
:10098000610c20008100e900feff3a000000060033
:10099000215c20008100e900feff3a000000060013
:1009a00001002c008100e900feff3a000000060073
:1009b00001002c008100e900feff3a0001002c003c
:1009c0008100e900feff3a0001002c008100e900ef
:1009d000feff3a00000006000200fa00004f780017
:1009e000114798001e4078004400070010c0b30073
:1009f0009e4f10001e003a00a042a800212a2000ad
:100a000091407800c0c3b30000c07000a2e2b700fc
:100a1000412a200091407800f0c3b30000c070006c
:100a2000a4e2b700a5c2bf00f041b300a5e2b70041
:100a30008d60a8008560a9001e409000674060009e
:100a4000674060000040400000404000004040001f
:100a5000004140009109200091407800f0c8b300a7
:100a600000c060000240700099e0b7000600370047
:100a70008d60a9008560a90099c0bf00f1c8b300ce
:100a80000140600099e0b7000080fa000000060015
:100a90000200fa00004f7800a1e2a80010c0b300e5
:100aa0009e4f100001003a00a022a8000080fa002a
:100ab000000006000000fa00a1e2a9000080fa0090
:100ac000000006000000fa00a022a8000080fa0042
:100ad000000006000000fa00a0c2bf0061406000f4
:100ae0000080fb000080fa00000006000000fa0011
:100af000001480000080fa00000006000200fa00e6
:100b0000004f7800c6e2a8000000eb000015880046
:100b1000012a20009140780000ceb30000c0700090
:100b2000a0e2b7000000eb001015880020002000b4
:100b3000201588007000200030158800f0f72f0085
:100b4000401588000000eb00501588000080fa0076
:100b5000000006000000fa008560a9000080fa008d
:100b6000000006000800fa00004f780011479800c6
:100b70002247980023079800340798001139200075
:100b80009140780080cfb30000c060000024a00036
:100b900091e3b700013920009140780000ceb30006
:100ba00080c0600000c8b30080cf5000f9ff3a0059
:100bb0009163a800213920009140780000ccb30057
:100bc00000c0600092e3b70092c3bf00f043b200e0
:100bd00092e3b700413920009140780080cfb30004
:100be00000c0600094e3b7004139200091407800d4
:100bf00070ccb30000c060008041b30094e3b70044
:100c0000513920009140780080cfb30000c06000cf
:100c10000004a00095e3b7006e63a9008ee3a9006d
:100c20008e43a900be009000f07f2000808060000d
:100c3000f07f2000008060000000400000014000c4
:100c40008119800030002e000080600002007000da
:100c5000801988003003a8008e03a900ae00900020
:100c6000f07f200080806000f07f20000080600026
:100c700000004000000140000118800030002e00fc
:100c80000080600002007000001888000003a900c6
:100c90001e4090000004e00003003a002e40900047
:100ca0000004e0000e0032008f60a8008760a900f9
:100cb0000000eb00c01c88001e4090000004e00013
:100cc000020032009803a8009603a9002e4090006d
:100cd0000004e000020032009843a8009643a900f7
:100ce0009e40780067c060006741600011392000b5
:100cf0009140780080cfb30000c0600002407000d7
:100d000091e3b70090c3bf000080fb004500de0008
:100d10008080fb001e80fb00808f5000f9ff3a00ae
:100d20000080fa00000006000000fa0096c3bf0031
:100d30000080fb00610060000080fa0000000600f7
:100d40000000fa0096c3bf000080fb004200de00f6
:100d50000080fb00610060000080fa0000000600d7
:100d60000000fa008760a9000080fa000000060079
:100d70000000fa009603a9000080fa0000000600b7
:100d80000000fa009643a9000080fa000000060067
:100d90000800fa00100798002107980062479800a1
:100da0006003a9006023a9001e009000f043b20078
:100db000f043b200f043b2000040400080404000e9
:100dc00060c3bf00634060000140700060e3b70093
:100dd0009e009000007c2000008060004600de0045
:100de0007f406000004040000040400080404000e4
:100df00061c3bf00674060000140700061e3b7005d
:100e00006e4090006f4060006f4060000040400006
:100e100000404000004140004136200091407800f1
:100e200070c8b30000c060000240700064e3b70007
:100e30000040eb00004f78000b0037001e80fb00e5
:100e40008000780060362000008140001e80fb009a
:100e5000800078002e009000008040001040780054
:100e6000004978001e4fe8006e4090009e4f100031
:100e7000f2ff39006e63a8006ec3bf0068406000d7
:100e80000004e000fcff3a000080fa0000000600c9
:100e90000200fa006ec3bf00684060000004e0007a
:100ea00003003a0010002000000f78000200370015
:100eb0000000eb00000f78001e0078000080fa00b0
:100ec000000006000000fa00001c80004200de0066
:100ed000f17f2000010060000080fa0000000600a1
:100ee0000000fa0084c3bf006f4060000080fb0078
:100ef0000080fa00000006000600fa0010079800c3
:100f000084c3bf006f406000004f78000040eb00da
:100f100010479800560037001e4090000080fb00ec
:100f2000200798002e009000e30f50002c003200a4
:100f30002e009000e30f50000a003c002e009000ad
:100f4000e10f5000190032002e009000e10f500018
:100f50001e003c002e0090000000e0000e00320059
:100f6000400037002e009000e50f500029003200ad
:100f70002e009000e50f5000210035002e0090005b
:100f8000e60f50002b0032002e009000e70f5000bb
:100f90002d00320033003700301c80008040780084
:100fa0001e009000014878002e0037001e009000bf
:100fb0000001e800311c800000f02f00008060007c
:100fc0004800de0000497800260037001e0090002f
:100fd0008080e800401c80008048780021003700b5
:100fe0001e00900063014000411c800000f02f00b3
:100ff000008060004800de000049780019003700da
:101000001e009000e4004000501c800080487800e2
:10101000140037001e00900065014000511c800044
:1010200000f02f00008060004800de0000497800da
:101030000c0037001e009000e6004000601c80009d
:1010400080487800070037001e00900067014000cc
:10105000611c800000f02f00008060004800de006e
:10106000004978001e4090000040e80010479800ba
:101070001e4090009e4f5000a7ff39000080fa00ec
:10108000000006000000fa008ee3a9000080fa00cc
:10109000000006000200fa008ec3bf0001c8b300c2
:1010a000014060000004e000030032001000200056
:1010b000000f7800020037000000eb00000f7800fe
:1010c0001e0078000080fa00000006000000fa0010
:1010d000ff3ffc000080fa00000006000000fa005c
:1010e0000000fc000080fa00000006000000fa008a
:1010f0000060fe000080fa00000006000000fa0018
:10110000af448800504280009000900081874700e3
:10111000a00090000140010050428000efb897000d
:1011200021009800a1448000e480400081805700a5
:1011300011009800ae4480000080fa000000060014
:101140000600fa00000f7800110798004247980047
:10115000deff07009e0078000000eb0080087800aa
:101160001e0078009e009000110098009e007800fc
:1011700020c0b300c04098001e007800100090000e
:10118000ce40900001487800d4ff07000000eb003b
:101190000080fa00000006000a00fa00100798001c
:1011a000414798005247980063479800c7ff0700df
:1011b0000040eb00104798001e00900010009000c7
:1011c0000000e000290032001e0090001000900096
:1011d000104f78005e4090000080fb0040079800b0
:1011e0004e009000e20f5000170032004e009000b9
:1011f000e40f50000c0032004e009000e10f500050
:1012000001003200190037004e4090001e4060007f
:101210000004e000150032001e4090000040e8008d
:1012200010479800110037004e4090001e406800a3
:101230000004e0000d003a001e4090000040e8006d
:1012400010479800090037004e4090001e4f600084
:101250004e4090001e4068000004e00003003a0089
:101260001e4090000040e800104798009e4090000b
:101270006e4190001e009000ea01070010479800a0
:1012800096ff07001e4090000080fb000080fa00df
:10129000000006000800fa00200798006147980047
:1012a0007247980089ff0700ae009000c0842000bc
:1012b000808f500004003900618720002e009000cc
:1012c000810f50000300360020c0b3002047980073
:1012d000520037002e00900040409000e24f500036
:1012e0000300320060c0b300204798004b00370075
:1012f0002e00900090009000010f78001e00e0008a
:1013000003003a0050c0b300204798004300370064
:101310007e4090000080fb000000d1006100600072
:101320000004e000060032001e00780090407800c3
:101330006e40900000c07000204798000800370001
:101340001e007800904178006e41900002407800c5
:101350000080ea008180ea0000c061002047980018
:101360002e4090009e00780091407800814f500000
:1013700003003a0040c0b300204798002700370020
:10138000ae4090001e007800014878007e4090003a
:101390000080fb000000d100610060000004e0005c
:1013a0001c0032002e0090001000780010079800fa
:1013b00015003700f04380000000e00003003a0011
:1013c0001e009000f043880003003700e1438000d6
:1013d0001e009000b00098001e009000e0438800be
:1013e0001e009000b00090002e00900001087800d0
:1013f0009e0090000000eb00b00098002e009000ce
:1014000010007800100798001e0090000000e00017
:10141000e8ff3a000040eb00204798002fff07004c
:101420002e4090000080fb000080fa0000000600c3
:101430000400fa00000f78002147980023ff0700fe
:101440009e0078000000eb00800878002e4090009d
:10145000e14060001e007800214098009e00780066
:1014600010c0b300c04098001cff07000000eb0054
:101470000080fa00000006000600fa00100798003d
:101480004147980011ff07001e0090002040900087
:10149000004f78009e4078004e4190001e00900062
:1014a00060010700004f78001e4078000080fb00bc
:1014b0004300de00610060000004e0000300320031
:1014c0009e0090000040eb00a040980003ff070042
:1014d0001e4078000080fb000080fa00000006003b
:1014e0000400fa0010079800f8fe07009e00900024
:1014f000c0842000808f50000400390061872000e4
:101500001e009000810f50000300360020c0b30081
:10151000004f78002b0037001e00900040409000e4
:10152000e14f50000300320060c0b300004f78006c
:10153000240037001e009000204090000004e000ce
:101540000300320040c0b300004f78001d00370098
:101550009e00900010c0b300a04098001e009000b4
:1015600010007800000f78001e0078000000e000f6
:1015700012003200f04380000000e00003003a0057
:101580001e007800f043880003003700e14380002c
:101590001e007800b00098001e007800e04388002c
:1015a0001e007800b00090001e0090000108780036
:1015b0009e0078000000eb00b00098000040eb00b7
:1015c000004f7800c5fe07001e4078000080fb0039
:1015d0000080fa00000006000000fa000000eb00a6
:1015e000404288000000eb00504288000000eb0001
:1015f000604488000040eb0092e8b7006000b8004b
:1016000070448800814488000000eb00e0438800bb
:101610000000eb00f04388000080fa0000000600a4
:101620000800fa00000f7800110798004247980060
:101630009e00900000802000808f50000400390040
:10164000618320001e009000810f500003003600cf
:1016500020002000300798002a0037009bfe07007a
:101660009e0090000000eb00900098004e4090001b
:10167000804078000174a1001e0090002400070043
:101680009e009000110078000040a0000050a100d2
:101690000060a100800878009e0090001100780092
:1016a0000070a100800878001e0090009e00780065
:1016b00021009800704480008144800080407800c0
:1016c0001e009000015098004e4090000004e00081
:1016d000090035009e009000110078000040a00035
:1016e0000050a1000060a0008008780081842000e4
:1016f0001e0090003e01070078fe07000000eb008e
:10170000300798003e0090000080fa0000000600bc
:101710000600fa0010079800414798004e409000dc
:10172000ef4f500005003600f0c0b300404798006e
:1017300010c0b300004f7800020037000040eb00fb
:10174000004f78004e409000ef4060009e019000f6
:10175000130078008180fb006f81600001ff2f0083
:101760000100600002007000800978001e80fb000c
:101770000080fa00000006000000fa0053fe070097
:101780005afe070012003700f043800050428800e4
:101790005042800030009000f043880051428000a9
:1017a0000000eb00b00098005042800081842000cf
:1017b0000f010700f04380000000e00002003a0043
:1017c0000000eb00e043880044fe07003ffe0700f6
:1017d000f04380000000e000ebff3a006d003700ae
:1017e00092c8bf000040e90092e8b7006044800062
:1017f00050428800504280000000e0005e0032004d
:1018000050428000805090008140e90001509800d3
:1018100059003700504280007000900060448800fa
:101820005242800070448000814480000051980042
:101830005042800090007800000720008080600007
:1018400000022000808f50000a003a0050428000c1
:10185000900078000140a0000150a1000160a000ac
:10186000010878005042800081842000e0000700d9
:101870003d003700504280009000780000072000b3
:101880008080600000072000808f50001b003a001d
:1018900012fe07005042800020009000000001006e
:1018a0000afe070050428000100078006f006000c0
:1018b0000000e00004003a0051428000110078006e
:1018c0000070a100800878005042800090007800ed
:1018d00000082000008060000000e00022003200cc
:1018e0005142800050428000204890008050980073
:1018f00050428000f80007001b0037005042800073
:10190000500090000000e0001700320050428000bc
:101910005000900080007800504280003d01070098
:1019200050428000e18720003a01070050428000c9
:101930008184200037010700514280000000eb0045
:10194000d000980051428000110078000040a100b2
:101950000050a0000060a000800878005042800085
:1019600081842000a200070060448000504288006b
:10197000dafd0700d5fd0700504280000000e000be
:101980000400320050428000005090000004e0004b
:10199000a0ff320092c8bf000004e00090ff3a00b0
:1019a0004042800050428800504280000000e00029
:1019b0001600320040428000300090004042880013
:1019c00052428000504280001000be00300198005a
:1019d00041019800c1fd0700c8fd0700bbfd0700dd
:1019e0005042800090007800000720008080600056
:1019f00000052000808f500007003a005042800010
:101a0000818420007a00070003003700b3fd07003f
:101a10006a010700adfd0700b0fd07000080fa0075
:101a2000000006000800fa001007980041479800df
:101a30005247980050428000900078000007200034
:101a40008080600000062000808f50000d003a006a
:101a500051428000110078000040a0000050a10019
:101a60000060a000800878005142800011007800da
:101a70000070a10080087800500020003007980016
:101a80005800370050428000b00090000140a00094
:101a90000150a1000160a000310098004e4090006c
:101aa0000004e000270032005042800090007800df
:101ab00000082000008060000000e0001a003200f2
:101ac00051428000110078000070a1008008780069
:101ad00050428000500090000000e00005003200fd
:101ae000504280008000eb0051009800504280007e
:101af0000001070080c0b300004f78005142800011
:101b0000110078000040a0000050a1000060a0007b
:101b1000800878001e4078000004a0000080fb00d0
:101b2000300798002f0037005142800011007800e4
:101b30000070a00080087800210020003107980084
:101b4000280037005e4090000004e00007003a00e3
:101b500051428000110078000040a1000050a10017
:101b60000060a00080087800150037005042800017
:101b700090007800000720008080600000052000b1
:101b8000808f50000e003a00514280001100780012
:101b90000040a1000050a1000060a0008008780073
:101ba00050428000de40900001509800504280007a
:101bb0009e009000510098005042800046000700af
:101bc00051428000110078000070a0008008780069
:101bd0009e00900050428000050007002000200079
:101be000300798003e0090000080fa0000000600d8
:101bf0000c00fa0030079800410798004e00900052
:101c000090007800210798002e0090000000e0006e
:101c100009003a004e009000be00900001087800d4
:101c2000be0090000000eb00b00098000000eb0048
:101c300050079800250037000000eb0010079800bf
:101c40003e009000100078006f406000004f780068
:101c500005003700ae009000110798002e0090009c
:101c6000b0009000210798002e0090000000e000d6
:101c7000070032009e80fb002e00900010007800cc
:101c80006f4060000080fb00808f5000f1ff3d003e
:101c90001e0090000000e00004003a004e0090009a
:101ca000be00900001087800030037001e0090007d
:101cb000be009000310098003e009000ae00900001
:101cc000310098000000eb00500798005e00900083
:101cd0000080fa00000006000a00fa0030079800b1
:101ce00060448000200798002e0090000000e00073
:101cf00008003a00be00900061448800be009000d9
:101d00000000eb00f00098000000eb004007980096
:101d10003d0037000000eb00100798002e009000f7
:101d200080509000014f78000b0037002e0090008b
:101d3000100798002e009000f000900021079800f6
:101d40002e0090000000e000030032002e00900002
:101d5000005090001e4f40002e0090000000e00058
:101d6000040032003e009000005090009e4f500052
:101d7000eeff31002e0090000000e0000400320071
:101d80002e009000805090001e407800014f5000bf
:101d90003e009000005090009e4050003e00900099
:101da000015098002e0090000000e0000800320072
:101db0003e00900080509000014f78002e0090006f
:101dc000005090009e4050002e009000015098005e
:101dd0001e0090000000e00003003a003e0090006a
:101de00060448800030037001e009000be00900091
:101df000710098003e009000ae00900071009800c5
:101e00000000eb00400798004e0090000080fa00b0
:101e1000000006000c00fa00300798004107980007
:101e20004e00900090007800110798000000eb0031
:101e3000200798003e009000b0009000010f78004d
:101e4000240037009e0090003e009000808f5000dc
:101e50001b003a002e0090000000e00003003a0052
:101e60004e0090001e087800030037002e009000fe
:101e70009e00780031009800ce009000c0882000bd
:101e8000808f50000b003a001e00e0000900320075
:101e90003e00900000509000404798001e007800df
:101ea000805090004e40900080c040001e0078009e
:101eb000015098000000eb00500798000a0037001e
:101ec0009e009000210798001e009000b000900036
:101ed000110798001e0090000000e000d9ff3a00b2
:101ee00010002000500798005e0090000080fa006b
:101ef000000006000a00fa003007980060448000e5
:101f0000100798000000eb00200798003e009000aa
:101f1000f0009000010f7800200037009e00900034
:101f20003e009000808f500017003a002e00900075
:101f30000000e00003003a001e00780060448800c2
:101f4000030037002e0090009e007800710098007a
:101f50001e00e000090032003e009000005090009a
:101f6000404798001e007800805090004e4090003e
:101f700080c040001e007800015098000000eb0077
:101f8000400798000a0037009e0090002107980043
:101f90001e009000f0009000110798001e009000b5
:101fa0000000e000ddff3a0010002000400798002c
:101fb0004e0090000080fa00000006000000fa00c9
:081fc0000080fa000000060099
:020000040000fa
:0200000401f009
:04000000ffff0000fe
:020000040000fa
:0200000401f009
:04000400ff7f00007a
:020000040000fa
:0200000401f009
:040008007cff000079
:020000040000fa
:0200000401f009
:04001400ffff0000ea
:020000040000fa
:10000800f20f0000f20f0000f20f0000f20f0000e4
:10001800f20f0000f20f0000f20f0000f20f0000d4
:10002800f20f0000f20f0000f20f0000f20f0000c4
:10003800f20f0000f20f0000f20f0000f20f0000b4
:10004800f20f0000f20f0000f20f0000ee030000b4
:10005800f20f0000f20f0000f20f0000f20f000094
:10006800f20f0000f20f0000f20f0000f20f000084
:10007800f20f0000f20f0000f20f0000f20f000074
:10008800f20f0000f20f0000f20f0000f20f000064
:10009800f20f0000f20f0000f20f0000f20f000054
:1000a800f20f0000f20f0000f20f0000f20f000044
:1000b800f20f0000f20f0000f20f0000f20f000034
:1000c800f20f0000f20f0000f20f0000f20f000024
:1000d800f20f0000f20f0000f20f0000f20f000014
:1000e800f20f0000f20f0000f20f0000f20f000004
:0800f800f20f0000f20f0000fe
:020000040000fa
:10010800f20f0000f20f0000f20f0000f20f0000e3
:10011800f20f0000f20f0000f20f0000f20f0000d3
:10012800f20f0000f20f0000f20f0000f20f0000c3
:10013800f20f0000f20f0000f20f0000f20f0000b3
:10014800f20f0000f20f0000f20f0000ee030000b3
:10015800f20f0000f20f0000f20f0000f20f000093
:10016800f20f0000f20f0000f20f0000f20f000083
:10017800f20f0000f20f0000f20f0000f20f000073
:10018800f20f0000f20f0000f20f0000f20f000063
:10019800f20f0000f20f0000f20f0000f20f000053
:1001a800f20f0000f20f0000f20f0000f20f000043
:1001b800f20f0000f20f0000f20f0000f20f000033
:1001c800f20f0000f20f0000f20f0000f20f000023
:1001d800f20f0000f20f0000f20f0000f20f000013
:1001e800f20f0000f20f0000f20f0000f20f000003
:0801f800f20f0000f20f0000fd
:020000040000fa
:101fc800980800000400000000000000000800005d
:0c1fd80098000000000000000000000065
:020000040000fa
:041fe4000000fe00fb
:00000001FF
