:020000040000fa
:080000000801040000000000eb
:020000040000fa
:1002000000000000000000000000000000000000ee
:10021000af96200080ff2000000188000000000051
:10022000050007000c0007004e250200000000003a
:100230000040da000000fe004440a9004002200017
:100240000000e0000300320000002000a001880050
:100250004440a8000000060060d1220001002000f8
:100260001600370062004000e080480091018800dd
:100270009001ba0062004000e080480091018800cf
:100280009002ba0062004000e08048000002eb00eb
:100290006028e10005003a008301e900070033000f
:1002a000038009000059eb00040037006128e100d9
:1002b000010032000082eb00050007009101880078
:1002c0001001ba000200e000e6ff3a00000005005d
:1002d000910188008002780062004000e0804800c0
:1002e0003559ba008301e900080032002559ba00e7
:1002f0008301e900050032000400e000f4ff320051
:1003000015d9ba008301e900f1ff3a0000000600a8
:10031000881f7800020478001400070008004000dd
:100320004f047800000006000000fa00881f7800e3
:10033000000478003fb99700ea81570080007800f8
:100340008018200012000700800078000000e00004
:10035000020035000040eb0080707c000100780056
:100360004f0478000080fa000000060000027800c8
:100370008001780001003700b15978000200420086
:10038000808f5100fcff3a00040078000000060056
:100390006200fa00889fbe008a9fbe000004be0073
:1003a000020578008300780060f92f000f004000fc
:1003b000af00070088979f0099979f000000eb000f
:1003c000a09f9f009a4578000b80fb000000ea0088
:1003d000cf04de000904e90050c2b30080cf55000d
:1003e00001003200090478000800e0000b0034002e
:1003f000080178008a0078001f9097008f9197007d
:100400000300010090979f000000e000930032007d
:100410002f98970008004000a09f9f000905450005
:1004200050c2b30080cf5500040032000b04e0003e
:10043000e4ff3a002f989700890037000000eb0096
:10044000809f9f00f0979f00e0979f00d0979f00ac
:10045000c0979f00b0979f00c09f9f000900370082
:100460004092200000805000000040008191200058
:10047000e08078004f98970001007000c09f9f00b7
:100480000a05e8001a4478008800fb00409220002a
:100490007c000700800078000000e000f0ff3a00d8
:1004a000a0c2b300804f54000e003a00bf889700ee
:1004b0000180e900b08f9f0090007800b19f9f00fd
:1004c0000100e00005003d000100ea00b09f9f0030
:1004d0004f9897000020a000c09f9f000a05e800e9
:1004e00010003700b19f9f0009003700bf989700a8
:1004f000f0ff2700808f5000040032006a08b90026
:100500000000410003004000b09f9f000a05e80082
:100510001a01fb0003fd2f0003004100e90f50000a
:10052000f2ff3600e0c2b3009a4f10000400320020
:100530000080eb00909f9f008a0478001c00370029
:100540008a04e800a0c2b300994f100007003a00e7
:10055000bf8897000180e900b08f9f0010007800ed
:10056000909f9f008a84e800110037000000eb0094
:10057000909f9f00090037009f989700f0ff270089
:10058000808f5000040032006a08b900000041006a
:1005900003004000909f9f008904e8001901fb00c0
:1005a00003fd2f0003004100e90f5000f2ff360069
:1005b000194478008800fb000096200031000700f5
:1005c0000000e00002003a0000447800010037001b
:1005d0008904e800a87f9f0080c6b300804f5400c4
:1005e00004003a0066405000994f140007003200a2
:1005f00008003700c0c6b300804f540005003a0021
:10060000994f140003003a0065404000a07f9f000e
:100610008904e8000905e800c8fb2f000f04440026
:1006200060f92f000f0040008085e8008801780005
:1006300019417800800078000b007800190007004d
:100640000000e00005003a00880078000b00780008
:10065000990107000000e0005aff3d000080eb0018
:100660004f05be004f04be000080fa0000000600e7
:100670000200fa00f1bf9f00010878000080fa0034
:1006800000000600040037001004e00001003a00fa
:10069000000005000000e80090cf1000faff3a00cb
:1006a00000000600889fbe008a1f780000047800c2
:1006b00001027800824478000305780070c6b30018
:1006c000804f510021003c0000c0e900804f5100e4
:1006d000e5003d0072405000804f51005101320052
:1006e0000d003c006c405000804f510066013c0002
:1006f00000c0e900804f5100db003d0050c2b30054
:10070000804f51005d0132007c404000804f51001d
:100710005d013a00d400370010c6b300804f51008d
:10072000d100320004003c0069405000804f51006d
:1007300055013a007500370030c6b300804f5100b4
:10074000180032000040e8000900370000c7b3007d
:10075000804f51002401320008003c0000c0e90035
:10076000804f5100ea00320068003c0065405000b4
:1007700080cf540044013a000f00370050c7b30047
:10078000804f51006100320063404000804f5100b3
:100790005e00320065405000804f51003a013a003f
:1007a000200137009180e900010a7800780090006c
:1007b00011f079003a013700a8609000c0c6b3007c
:1007c00080cf50000a003a00140078006401500005
:1007d000020a78001200be004f88de00cf80de00e3
:1007e0001202be0000037800800378001600370074
:1007f00010c7b30080cf500003003a009400780087
:10080000688050000500370014017800a0c6b300ce
:1008100080cf500005003a0068005100000a7800bf
:100820003002be002003be00070037000280e9004e
:10083000000a78001000780000027800cfa2de00e5
:100840000503780086037800049cbe000694be0071
:10085000a860900080c6b30080cf50000e00320028
:1008600020c6b30080cf500005003a000400fb0012
:10087000cf80de0001017800820178000a00370095
:1008800040c7b30080cf50000300320066404000f4
:1008900080cf500006003a0004007800cf80de00d0
:1008a0000101780082017800009cbe000294be0025
:1008b0003800be002801be00e00f5000e08f580055
:1008c000e00f5900e08f590003003d0078009000d0
:1008d000d1c2b3000a003700081090000018a3002e
:1008e0000300320078009000b1c2b300040037006a
:1008f0000008a300570032007800900001c2b30046
:1009000001707d000000e80051003700a8609000f1
:10091000c0c6b30080cf500007003a0094007800b2
:1009200064805000000a78001002be000003eb0053
:10093000860378001600370010c7b30080cf500040
:1009400003003a00940078006880500005003700ea
:1009500014017800a0c6b30080cf500005003a0013
:1009600068005100000a78003002be002003be007b
:10097000070037000280e900000a780010007800c4
:10098000000278000500200006002000070020007b
:10099000049cbe000694be00a860900080c6b30010
:1009a00080cf50000e00320020c6b30080cf500030
:1009b00005003a000480fb00010020000200200036
:1009c000030020000a00370040c7b30080cf50006a
:1009d000030032006640400080cf500006003a001d
:1009e0000400780001002000020020000300200025
:1009f000009cbe000294be00081090000038a300c6
:100a0000140032003800be002801be00e00f500084
:100a1000e08f5800e00f5900e08f59000d003200c0
:100a200080c7b30080cf54000300320080c5b300fc
:100a300080cf540007003a007800900001c3b30053
:100a400001707d008000e80089707d000080e80072
:100a50007004980078009000000045006004980041
:100a6000894078006c003700a8609000140178007d
:100a7000c0c4b30080cf500005003a0068005100a8
:100a8000000a78005001be004000be00040037009c
:100a900064005100000a78001000be009d070700a6
:100aa000009cbe000294be00380090000000e000f0
:100ab00003003d0078009000d1c2b3000a00370067
:100ac000081090000018a300030032007800900086
:100ad000b1c2b300040037000008a30005003200d3
:100ae0007800900001c2b30001707d000000e800b2
:100af00070049800780090000000450060049800a1
:100b0000894078000800780035010700660037004a
:100b1000a8609000c0c6b30080cf5000250032000e
:100b20000a003c006440500080cf50002800320092
:100b300000c0e80080cf5000140032006840500030
:100b400080cf500022003a000a00370040c7b300af
:100b500080cf50001e0032006640400080cf500021
:100b60001b0032006940500080cf500018003a004e
:100b7000060037001480e900000a780010007800b1
:100b8000485c900008487800470037001480e9006e
:100b9000000a78001002780068089000cf80de001c
:100ba0000101780082017800009abe000292be0026
:100bb0003d0037001480e900000a78001001780039
:100bc00068089000cf80de000089be003600370044
:100bd0001480e900000a780010007800680c90008a
:100be00008087800300037001180e900800878009c
:100bf00010007800cf80de000101780082017800cb
:100c0000009cbe000294be007800900000004500e9
:100c10006004980081c7b300080078001a03070039
:100c2000210037001480e900000a78009001780064
:100c300063049800580990000200e00003003d00a2
:100c400003007800c30307000a0037008000eb00b0
:100c500003007800c6030700800078000000e00071
:100c6000030032006800900000805000010037004f
:100c700058089000100c98000b0037007800900086
:100c800002707d000600370078009000800045006b
:100c90000904e00001003a0059c2b3008948780015
:100ca0000000e800700498000000eb004f05780099
:100cb0004f04be00000006000400fa00889fbe003a
:100cc0008a9fbe008c1f780000047800010678001f
:100cd00070089000f8009000010050008808900013
:100ce000010050009808900001005000a8089000f2
:100cf00001005000b808900001005000c8089000a2
:100d00008105500000022200a0bf9f0000032300c5
:100d100090bf9f00081090000028a30018003a0020
:100d20000b00e000160034008b0478000905780001
:100d3000e28f5400020036002a0020000200370033
:100d40000900e0000b003400c80190000a0178009f
:100d5000ec805700580090000300010050049800f8
:100d60000000e00096003200680890000a00400091
:100d7000600c98008a8454004240a900ebff3c00bc
:100d8000780190000200e0000b003400c8019000e0
:100d90008c00780058009000030001005004980077
:100da0000000e0008600320068089000f800900023
:100db00001004000600c9800880c90000900e000e1
:100dc0001500340009057800e28f54000200360057
:100dd0002a002000020037000900e0000b00340068
:100de000c80190000a017800ee805700580090007a
:100df00003000100500498000000e0007000320081
:100e0000680890000a004000600c98008a84540032
:100e10004240a900ebff3c00180990000200e000ee
:100e20000b003400c8019000e800900058009000ca
:100e300003000100500498000000e0006000320050
:100e4000680890009808900001004000600c98002d
:100e5000a80c90000900e000150034000905780096
:100e6000e28f5400020036002a0020000200370002
:100e70000900e0000b003400c80190000a0178006e
:100e8000ee805700580090000300010050049800c5
:100e90000000e0004a003200680890000a004000ac
:100ea000600c98008a8454004240a900ebff3c008b
:100eb000380990000200e0000d003400e8009000c6
:100ec0001808900080804000c801900058009000f1
:100ed00003000100500498000000e00038003200d8
:100ee00068089000b808900001004000600c98006d
:100ef000c80c90000900e0001500340009057800d6
:100f0000e28f5400020036002a0020000200370061
:100f10000900e0000b003400c80190000a017800cd
:100f2000ee80570058009000030001005004980024
:100f30000000e00022003200680890000a00400033
:100f4000600c98008a8454004240a900ebff3c00ea
:100f5000081090000028a3001b0032000b00e000e6
:100f6000190034008b04780009057800e28f5400e2
:100f7000020036002a002000020037000900e000cd
:100f80000b003400c80190000a017800ec80570083
:100f90005800900003000100500498000000e00099
:100fa00007003200680890000a004000600c9800ba
:100fb0008a8454004240a90003003400eaff37004d
:100fc0000080eb00010037000000eb004f067800c6
:100fd0004f05be004f04be000080fa00000006006e
:100fe0002f04b000889fbe008a9fbe008c9fbe0069
:100ff0008e1f780080bf9f00014778005001be001f
:101000004000be00a09f9f00b19f9f00c29f9f0015
:10101000d39f9f0010c6b300804f570015003200c9
:1010200010c4b300804f5700120032000fb9970070
:10103000520890000000e00003003d006000200026
:10104000500998000b0037000000e00009003a004a
:1010500070c6b300804f57000300320070c4b30065
:10106000804f570003003a00100020008fb997000e
:10107000d00998008fb8970020fb2f000f00400088
:10108000c502070000017800e20f500014003a008a
:10109000300020000fba9700100a980010c6b30065
:1010a000804f57000a00320064404000804f5700d4
:1010b000070032000040e800804f57000400320073
:1010c000e19220000040e800804f570001003a0004
:1010d000219320008fba970065009000150037001b
:1010e0000000e00017003400300020008fb89700a7
:1010f0009008980010c6b300804f57000a003200d5
:1011000064404000804f5700070032000040e80074
:10111000804f570004003200619320000040e80037
:10112000804f570001003a00a19320000fb99700ab
:1011300062009000315878003158780011487800ea
:10114000cb01370014c6b300844f570003003200b0
:1011500010c4b300804f570011003a008fba9700b7
:10116000e50190008300780000c3b3008058780048
:10117000e102980080c7b300844f5700010032009d
:1011800080c5b300804878000380e8008fb89700de
:10119000e0009800710090000080e800f0009800e6
:1011a0000200e00005003a00929f9f00c3fb2f0061
:1011b0000f8141009f999700a9013700e493200017
:1011c000f4b79f0010c6b300804f570005003200ef
:1011d00010c4b300804f5700b0003a00f5942000cf
:1011e000f5b79f008fb897005108900012022000b9
:1011f000a2b79f000000e000020035000000e800f8
:10120000a0b79f00afb197008301e800e3b79f004c
:101210006022b8006033b8002f989700bf989700fd
:101220004f999700df999700d90507008fb897006d
:101230003102be002103be000000e00004003d00ba
:101240000400be000601be0003f0a2000200370049
:101250000400be000601be00a09f9f00b19f9f003a
:10126000c29f9f00d39f9f001f9997006401510068
:10127000929f9f00c3fb2f000f8041000048eb00ae
:10128000d4fb2f000f024200c4b79f00320037008a
:10129000c20120000300200045fb2f000f80420008
:1012a000690207002f9c9700bf9c97004f9d9700f5
:1012b000df9d97000800be000a01be00b9050700c7
:1012c0000006be006fb1970067015100e2b79f00b2
:1012d0004240a9000a003400de0507000002be00fb
:1012e0000203be000800be000a01be00dc050700c4
:1012f000a09f9f00b19f9f00c29f9f00d39f9f0010
:10130000cfb19700678041007100200006003700d0
:101310000000e9006f4866004c6add004466de00ac
:101320000c067200c4eede00e00f5600e08f5e0097
:10133000050034008100e900e18f4000f4ff3a002d
:10134000010037000060eb008100e900fdff3b0079
:1013500067004000c0b79f00efb297000500e000b3
:10136000090034006022b8006033b8002f9897005d
:10137000bf9897004f999700df999700ba0507002b
:101380000000e000c2ff3c00c0fb2f008f004000c7
:101390004fb19700010051000000e900afb1970084
:1013a000830f500001003d00a0b79f00afb297002f
:1013b0000500e00004003d0085017800d0fb2f000f
:1013c0000f0140002e0037002fb19700800f510011
:1013d00005003d000100410010409000f5c0b30041
:1013e000e74f500001003c008042eb00d3fb2f0090
:1013f0000f8041002fb29700040040008000e900f8
:101400000402e900114178008100e900854f510094
:10141000fbff32008401e800afb0970001005000ec
:1014200000004200efcf520001003a000248e800fd
:1014300025fb2f008f8242006b8142000400e000f8
:1014400005003d008301e8001f98970064004000fc
:10145000909f9f006a814200030041008000e900e4
:1014600003027800040037001100fb00ffb2970070
:10147000e0c87a008100e9000402e900faff3b00bd
:101480008fb89700510890000000e000f4003d0084
:101490000300e900d0089800f10037002f9c970066
:1014a000bf9c97004f9d9700df9d97006022b8007a
:1014b0006033b8000800be000a01be003405070012
:1014c0000000e00005003d000bf0a200a89f9f0077
:1014d000b99f9f00ca9f9f00db9f9f001f989700a6
:1014e000725927000280b900026a28001300200008
:1014f00062050700e4005000919f9f0015003b002b
:10150000e3801000c0ff2f00008460000801ea00a3
:10151000929f9f002f989700bf9897004f99970030
:10152000df99970089892000070037000808a30089
:10153000030032003902be002903be005e05070029
:101540000884d100e88444000800e000f7ff3c0074
:101550001c0037009f9997000300e0001d00340035
:10156000c0ff2f0000806000909f9f000004780063
:101570006000b8000200200003ff230089892000da
:10158000070037000808a300030032003902be003c
:101590002903be00480507000884d100e884440000
:1015a0000800e000f7ff3c000002be000203be009e
:1015b0002f989700bf9897004f999700df99970051
:1015c000b2050700a09f9f00b19f9f00c29f9f0090
:1015d000d39f9f000fba97005409900060c6b300d4
:1015e000804f5700040032006100200060c4b30047
:1015f000804f570002003a009f9a9700ea8042000d
:1016000001014100d2b79f00f30f510002003400e6
:1016100030012000d0b79f0000c3b300c07f9f00ff
:10162000d1fb2f008f804000b1b79f003100370001
:101630000800be000a01be00da0407000006be0072
:101640005fb1970068015100d2b79f004240a900e6
:101650000e003400ff0407000002be000203be00bb
:101660000800be000a01be00fd0407006022b800a9
:1016700046782d00771924000f050700a09f9f00d2
:10168000b19f9f00c29f9f00d39f9f00bfb1970053
:10169000688441008900200008003700a200200073
:1016a000030020000c00be00e30107000804e9006d
:1016b00004c3b300044c41000006be00e00f560016
:1016c000e08f5e00070034008904e900e18f4400e8
:1016d000f2ff3a00030037000804e90000c3b3003a
:1016e000004c78008904e900fbff3b0068044400db
:1016f000b8b79f00dfb297000500e0000b00340090
:101700002f9c9700bf9c97004f9d9700df9d9700ef
:101710006022b8006033b8000800be000a01be00b5
:10172000d10407000000e000c1ff3c00c1fb2f0016
:101730000f8040003fb19700000051008001e90098
:101740001f9a9700e7004200d5fb2f000f8142004f
:10175000010037000201e80000c3b300924f1000ff
:10176000fcff3200d4fb2f000f00420080804000bd
:10177000828050000080410082015000919f9f00b4
:101780008fba9700550a900060c6b300804f57008b
:101790000300320060c4b300804f570002003a00db
:1017a0008100e8000800370050c6b300804f5700a2
:1017b000040032008000eb0050c4b300804f57009b
:1017c00001003a001100200001024200848f510004
:1017d00001003d00030278000400e00002003d002b
:1017e000840178001e003700830f520005003d0081
:1017f000e440790097c3b30040c3b30080cf5000ea
:1018000001003c0007c3b300040041008001e9006f
:10181000840278008502e900134378008301e9001f
:10182000874f5300fbff32008501e80004005000a1
:101830008080420090c3b30080cf530001003a0083
:101840008648e8000500e00005003d000201e900cf
:101850008301e8001f9897000000e800909f9f0018
:101860001f9a97008e4078000fb897008c010700f0
:101870004f0778004f06be004f05be004f04be0064
:101880002f04b100000006006f02b000889fbe0068
:101890008a9fbe008c9fbe008e1f780000067800d5
:1018a000108f200080bf9f0080c5b30080cf500004
:1018b0000700320082002000f2b79f00038e200054
:1018c00083bf9f007740400080cf50000a00320065
:1018d00080c7b30080cf500005003200a400200074
:1018e000f4b79f0080c5b30080cf500002003a00db
:1018f00000012000f0b79f003c04be002c05be0094
:1019000040c6b30080cf5000030032006540400065
:1019100080cf50000b003a00e00f5400e08f5c00d5
:10192000e00f5d00e08f5d0006003d006000b80044
:101930006011b80008045000898458000a05590055
:101940008b855900e00f5400e08f5c00e00f5d00d4
:10195000e08f5d0004003a005c0890008d012000db
:101960000000e0000c003200ffb097000102780098
:10197000cfa2de0005037800860378000800be00d1
:101980000a01be00a60507000fba97006440780060
:10199000d0e79f007d0120007fb097000002780013
:1019a000cfa2de0005037800860378000800be00a1
:1019b0000a01be0093050700009ebe000296be000d
:1019c0000d00e900e1fc2f008f80400000874000ff
:1019d0001a0037007fb1970002027800cfa2de0024
:1019e00005037800860378003c00be002c01be0091
:1019f0008f0507000205be000004be008d06e90049
:101a0000ffb1970003027800cfa2de000503780043
:101a1000860378000800be000a01be000d0607001c
:101a20003fb29700000052008fb8970060cf780057
:101a3000089ebe000a96be000e07e9003c00be00ec
:101a40002c01be00b0b79f00c1b79f00d2b79f0066
:101a5000e3b79f00e00f5000e08f5800e00f5900ff
:101a6000e08f5900020034000d00e000d9ff3c0077
:101a7000ffb09700e88f500010003a000c10900063
:101a80000038a3000d003200f78f560006003e001c
:101a9000e2fc2f000d014100e2c07f0000c3b30053
:101aa00080cf5000050032008d06e90000c3b3006e
:101ab000e3fc2f008d81410080f17f0078811600ca
:101ac000120e98006c009000e3fc2f008f81410003
:101ad0008d80410025fa07001c0990005c089000e9
:101ae000800f510006003d0002005000000e9800db
:101af0000c1090000040a100001698000f00370065
:101b00000000e0000d003d000c109000740060002b
:101b1000f00f500009003a007c089000fc00900093
:101b2000010050008c08900001005000020050009d
:101b30004240a90001003400000e98004f077800d1
:101b40004f06be004f05be004f04be006f02b1003d
:101b50000000060080007800010037000000e80067
:101b60001004e000fdff3a000100500000000600f4
:101b7000820178000400370090cf10000500320089
:101b80000000e8008301e9000300e000faff3a00ea
:101b90000000eb0000000600889fbe008004780073
:101ba0006684400000ff2700180060004401de004a
:101bb000f07f2000800f51000e003a00800ceb00f7
:101bc000180478006f0064001c003a0021009000a7
:101bd0000000e00019003a00110090000000e00051
:101be00016003a00100020001100e000140032003e
:101bf000120037000200e00005003c000100780000
:101c0000db010700000178000000e00008003c0054
:101c1000f00028001800600001fe2300010c700095
:101c200020c02f00800c41000080eb000400370032
:101c3000800ceb000000eb000100370020002000ca
:101c40004f04be0000000600889fbe008a1f780077
:101c50008c9fbe00000478000206be00e60440002f
:101c6000190178000200d0004505de008a007800e6
:101c7000f07f2000800f55000c003a006f006100db
:101c800068003a00280090000000e00065003a007b
:101c9000180090000000e00062003a0010002000f0
:101ca0001800e000600032005e0037000a00e0002b
:101cb00007003a0008007800ad01070080007800b6
:101cc0000000e000020034000a00780056003700ef
:101cd0006108b9000c0140008d814800e07f2000c0
:101ce000800f5100e08f59000d0034001900e00012
:101cf00004003d006000b8000200200003ff2f0038
:101d0000030037006000b8000200200003ff270036
:101d1000009cbe000294be0010002000420037006c
:101d200019027800e00f5100e08f590008003400dc
:101d3000f100280081006200020041000000400024
:101d40000000400000004000808c7000330037002d
:101d500000002800000362006f0062000040a00045
:101d6000800c780061015100e0815900c0fc2f0017
:101d7000f1ff2f00800f5100818f59000d003d00b1
:101d8000860c78000000eb002004980010049800f6
:101d9000000c7800240037008880e800110c7800df
:101da000640044009008780019087800800ceb006b
:101db00070014100f00f4100f7ff34008202ea0099
:101dc000150032008881e8007082120098007800c7
:101dd0008508de00130078000400dd00008c700030
:101de00064014400930078008508de00120078004a
:101df0000400dd0080897000920078008508de0014
:101e0000190078000400dd000089700019007800d6
:101e10000500de00800c7800990c73000080eb0058
:101e200001003700200020004f06be004f0578005b
:101e30004f04be00000006000800fa00889fbe00a4
:101e40008a9fbe008c9fbe00e0b79f00f1b79f0045
:101e50000206be000903070080bf9f0091bf9f00dc
:101e60000001be000c00be00280507006fb19700fe
:101e7000ffb1970000055100818559000fbc970004
:101e80009fbc97000800be000a01be004f06be00be
:101e90004f05be004f04be000080fa00000006009f
:101ea000ec874700889fbe008a9fbe008c9fbe00c3
:101eb0008e1f780000047800014578000206780043
:101ec00083047800840678000300e00002003c00f0
:101ed000190020008c96200060c6b300804f55008a
:101ee0000e00320060c4b300804f55000b0032007a
:101ef00070c6b300804f55000300320070c4b300b9
:101f0000804f55009c003a00e48f46008000350069
:101f100058089000808f56007d003d008d05e80038
:101f200060c6b300804f55001000320060c4b3009b
:101f3000804f55000d003200081090000038a300bb
:101f400004003a0058089000808f540001003d00c2
:101f5000590c9800580890000b005000500c980045
:101f600002003b000000eb00500c98000b00e0006a
:101f700027003c00180990006800900001c3b300de
:101f8000017178008201e800130c98005808900055
:101f90000000e00003003c00081090000038a3009f
:101fa0000500320068009000e1c2b3008171780042
:101fb0000280e800100c9800d80890000b00ea009e
:101fc000808f500001003d008105ea000b00ea000f
:101fd000200c98000b804000500c9800890f500096
:101fe00001003d0080047800390c980068009000e2
:101ff0009808900001004000090178008c007800ea
:10200000daf8070058089000090050001a0037005d
:1020100098089000680090008b8f540018003d00d5
:1020200001004000090178008c007800cff807001b
:102030001808900009014000120c98000980550012
:10204000200c9800580890000000e00003003c00bd
:10205000081090000038a30006003200e80090004d
:10206000e0c2b30000f17800380890000000e800fa
:10207000300c980058089000400c9800a4003700dd
:10208000010040000b0178008c007800b7f80700d1
:10209000180890000b014000120c98008b8454002b
:1020a000580890000000e00003003c000810900079
:1020b0000038a3000500320068009000e1c2b300c0
:1020c000017178000200e800100c98005808900098
:1020d000890f500001003d008004780068009000e6
:1020e00098089000010040008b004600090178002c
:1020f0009ef807001808900009004000100c980096
:102100005808900009005000200c9800800037000b
:1021100070c6b300804f55000300320070c4b30096
:10212000804f550014003a0058089000808f5400ea
:1021300004003d00081090000038a30001003a00a0
:10214000590c9800580890000000e900500c9800c5
:1021500002003b000000eb00500c980070c6b3007a
:10216000804f550002003a005ac6b3000b003700fa
:102170005ac4b3000900370010c6b300804f5500a1
:1021800002003a000ac7b3000400370010c4b300cd
:10219000804f550001003a000ac5b30018099000ad
:1021a000680090003c7178008201e800130c9800f0
:1021b0000c027800580890000000e00003003c008a
:1021c000081090000038a30017003200e8009000cb
:1021d000e0c2b30080f178008280e800110c980022
:1021e000580890000000e0000f0034008904e90066
:1021f000890f500001003d008004780068009000c5
:1022000001004000090178008400780057f80700b9
:102210001808900009004000100c98005808900021
:1022200009005000200c9800680090009808900069
:10223000010040000086e8000a587800800078001d
:102240000d00e00004003500b0c2b3008048780003
:102250008c04780004003700d0c2b30080487800b6
:102260008c0478008d06ea008005eb007887570023
:1022700006003700a10020000d007800b50007001f
:10228000015f78008b05e800800678000d00e00013
:10229000f8ff3c00e18f550009003c0050c6b30038
:1022a000804f55000300320050c4b300804f5500ea
:1022b00003003a0000c3b300005e78008c0478008d
:1022c0000b00e000040032000b00e900f88057002a
:1022d000008040000700370000c3b300805c780036
:1022e000060037008b05e90001c3b30090dc400015
:1022f0000000e9000b00e000faff3c0068009000dd
:10230000980890000100400000805400300c9800b4
:102310000810900074006000f00f50000e003a00aa
:10232000780090009808900001004000a8089000f4
:1023300001004000b808900001004000c80890006b
:102340008100400078089000808f500002003d001e
:1023500001005000000c98004f0778004f06be00a7
:102360004f05be004f04be00cf00b10000000600c4
:10237000881f780000027800e6024000150078000f
:1023800001002800810360006f006000800a78006f
:1023900012003a00240090000000e0000f003a0014
:1023a000140090000000e0000c003a00160020002d
:1023b0001400e0006300320008003700e40042002f
:1023c000910a78000480e8009008780014087800ea
:1023d000020a780070035300010037001600200045
:1023e000150178001500e000f4ff320013003700fb
:1023f0006401420080004000120078004f00de00bf
:10240000808a70008480e80012007800800140001b
:10241000110078004f00de00008971009101780002
:1024200003814100140078004f00de008008710035
:1024300014047800080a44000603e9001500780037
:10244000ef0f5000eaff36003a0037000481e80041
:102450009400d10092017800038041000000400008
:10246000000040000000400000004000000040006c
:10247000000040000000400000004000000040005c
:10248000000040000000400000004000000040004c
:1024900000004000008a7000e40042008301d10087
:1024a00011047800080044000000400000004000d3
:1024b000000040000000400000004000000040001c
:1024c000000040000000400000004000000040000c
:1024d00000004000000040000000400000004000fc
:1024e000008971001101d10095017800038041003d
:1024f00000004000000040000000400000004000dc
:1025000000004000000040000000400000004000cb
:1025100000004000000040000000400000004000bb
:10252000000040000000400080087100950ad100c2
:102530000603e80015007800ff0f5000c3ff3e00bf
:10254000ef0a6000958a7300060078004f04780057
:102550000000060001017800801f780011000900ca
:102560000200d800800078004f0078000191b90087
:1025700082025000010278000400be000000060044
:1025800003f0a200889fbe008a9fbe008c1f7800c7
:102590008d000700940033006450e1004f003200ca
:1025a0006420e1005200320003826c0007003b000f
:1025b0000905d0000306d000820f54000c065d0010
:1025c0000200390002003200890178000306780019
:1025d0008582550004003d000003fd008103fd00dd
:1025e0008502ea008b854200840f720002003b00e6
:1025f00060001000e08018006011b8000005eb00da
:102600007a28e1000a00390006007800c75ddd0085
:10261000f707b200878075002d00370082817100b6
:102620000a017800610560008180d1000080d3003c
:102630008502e900f9ff3b0006044000878448005a
:1026400002003b0060041400e0841c000988a30021
:10265000070032008a81710082817100610164008b
:102660008904d1000884d3008b05e80017003700e7
:102670000978a30013003a000b00e00013003400b7
:102680008b05e9000804440089844c000a44740066
:102690000978a3000d003a000b00e00007003400a9
:1026a0008b05e9000804440089844c0001003a00cd
:1026b0000b0020000978a300f7ff32000001eb00b7
:1026c00002003700828171000a017800560007007d
:1026d0000cf0a70001f0a0004c0037006420e100de
:1026e00002003a00838f6c004c0033000801be00ea
:1026f0000200be0045003700889fbe008a9fbe00d2
:102700008c1f7800300007003700330003866c0010
:102710006450e100240032006420e1002700320010
:102720006150e100220032006120e100210032000e
:102730008b854200eb07b1000134b800003ab800c5
:102740000804420089844a00013ab8000030b80009
:102750008880400009014a00040033000000400066
:1027600081804800020149008b05e900c909dd00ac
:10277000830170000100320013002000c814de0045
:102780004814dd004709de001200b200c808de0070
:10279000088470002400070001f0a1000cf0a700dd
:1027a00001f0a000190037006120e1001b00320099
:1027b0000801be000200be00f7ff37006150e100d3
:1027c000fcff3a00150037000004be003c00070083
:1027d0000003be000405be000200be003800070072
:1027e000844f7500000006000200be006450e10046
:1027f000050036006420e100020036000968a300ed
:1028000001003a000800be000160a0004f067800f9
:102810004f05be004f04be0000000600f0ff2f0071
:10282000f1ff2700f9ff370081002000618055008b
:102830000b003d000b00200061fe2f000100e100b5
:102840001d00340082817100610164008904d1009f
:102850000884d3000000e800faff3a00710020006d
:102860006100640003007000020060000900320093
:1028700061044400e0844c000988a5000500320092
:102880008b05e8006808e10002003a008904d100e5
:102890000884d300f20f20000258e10005003d003b
:1028a000c75ddd00f907b200898075000800780077
:1028b000000006000bf827008b00780000000500e0
:1028c000c70ade00f107b200f50fb20008003200bf
:1028d000e1cf4200020032000170a0002400050098
:1028e000810f70000100320004080500440005005b
:1028f000810f700002003a00140005008502e90013
:102900000000400081c04800fcff3b000170a000b7
:102910002400050081037800e9ff07000001be00e4
:102920006000b8000478a30013003a006220e100c0
:1029300015003e000d0039008301d1000281d30053
:102940008180d3008301d1000281d3008180d30034
:102950008301d1000281d3008180d3000538b0000b
:10296000c42add00f300b2008381720007f0a700e3
:1029700003f0a00000000600f3ff2700f2ff2f0085
:102980006110b900fbff370003ff2700f7ff370096
:102990008f1fd100630207008f87e9000000e0006d
:1029a000000006001400fa00889fbe008a9fbe0047
:1029b0008c9fbe000004be000205be0068004700f8
:1029c0000a90be000890be007f0207000070a700ba
:1029d0000bf0a100304320009e0290008082520044
:1029e000b0fe2f000028e10011003d00b0fc2f00d8
:1029f0000028e100150034001e0990008e089000a8
:102a00007e0090000501b0000201d1008180d3005a
:102a10000080d3008502e800fbff3a000b00e000d5
:102a2000a4023b0060001000e0801800a102370003
:102a3000f0ff2f00f1ff27000b00e0009d023b009c
:102a400001002800000020009a0237006000b80052
:102a5000980237004f89de00820178009a02370021
:102a600007f0a200cf023700809feb002d02070085
:102a70008f87e9000000e00000000600839f6800e7
:102a80000100e00002003d0060001000e08018003e
:102a90000300e00002003d0060011100e081190028
:102aa0003d0307004f00e00002003b006000100003
:102ab000e0801800000006002800fa00889fbe0091
:102ac0008a9fbe008c9fbe0003866b0065020700d4
:102ad0000028a30064003a000128a30067003a0020
:102ae0000008a30062003a000108a30065003a0054
:102af0001e009000be08900081064000ed3fb1002e
:102b0000f4805700ee019000111ab8008e09900071
:102b1000311bb8009e099000311cb800511db8004f
:102b2000f485570046000700fe0190003a000700b8
:102b30008b85e8003e0007008e09900040000700ea
:102b4000ee019000340007008b85e8003800070094
:102b50008e099000400007009e0990001b18b800e5
:102b6000890440000a854800fe01900034000700f7
:102b70008b85e80038000700ee0190003000070068
:102b80008e0990001b18b800890440000a8548008f
:102b90000a98a30008003a000402420085824a0015
:102ba00006034b0087834b0008044c0089844c00cb
:102bb0000a054d008d06e9008482720085027300cb
:102bc0004c3add0085027200010032001500200041
:102bd000443ade001400b2004538de00cb45dd008b
:102be0000b007000c540de00cb4ddd008b80700017
:102bf0004549de00cb55dd000b017100c551de00fb
:102c00000d037800f402070003f0a1000cf0a70008
:102c100003f0a000270237001b18b800850240000f
:102c200006834800e0834b0060044c000700370037
:102c30001b18b8000603400087834800faff3700de
:102c40001b18b8008703400008844800e0844c004b
:102c500060054d00000006001b18b8000804400085
:102c600089844800faff37000108a3000e023a00e9
:102c70005800be005801be00e3ff37000008a30063
:102c800009023a0009047800f9ff37002800fa0029
:102c9000889fbe008a9fbe008c9fbe0003866b008b
:102ca000f00107006400e100440032006408e10024
:102cb0004a0032006100e100460032006108e10094
:102cc00049003200ec0647006000b8003d02be003b
:102cd0003d03be00f48657006011b8003d04be00fd
:102ce0003d05be007d0320000b0037000000a00062
:102cf0008d06e900130032000402420085824a007a
:102d000006034b0087834b00000040008180480091
:102d100002014900838149000802520089825a0059
:102d20000a035b008b835b00f0ff3b00080242005c
:102d300089824a000a034b008b834b008d06e90011
:102d4000edff3a008482720086827200f707b200bb
:102d50008782720001003200150020001e049000de
:102d60003e0b900006035400e63fb0000368a3004a
:102d7000070032000000a7000500a0008301d10079
:102d80000281d3008180d3000080d3000603e800d5
:102d90008301d1000281d3008180d3000080d30061
:102da0000002eb000482d2008b02070003f0a100b6
:102db0000cf0a70003f0a000be013700640247003a
:102dc0006408e100b80132003400be003401be00e6
:102dd000f6ff37006108e100b30132006011b8006e
:102de0006000b800f1ff370003ff27000200200059
:102df000fbff3700881f7800000478005001be00f8
:102e00004000be000000420081804a0002014b00e9
:102e100083814b00009cbe000294be000400e100d0
:102e20000588e1000690e1000798e100020031000a
:102e3000680044001008e8004f0478000000060015
:102e4000f4874700889fbe008a9fbe008c9fbe000b
:102e50008e1f78000205be000004be00d4b79f009c
:102e6000e5b79f00f6b79f0087bf9f000000eb000b
:102e7000c0b79f00b0b79f00a0b79f0090b79f005a
:102e800080b79f000d042000bfb097004fb097009f
:102e9000000140000000e00014003d004f08de008b
:102ea00000007100c0b79f00ad00070001003d00a9
:102eb00012002000b000070001003d0012002000b9
:102ec000b500070001003d0012002000ba00070015
:102ed000be000700feff3a00c2000700c80007005e
:102ee0000f004000c3ff0700270037004f08de0037
:102ef00000067100ccb79f009900070001003d005b
:102f0000120020009c00070001003d00120020007c
:102f1000a100070001003d0012002000a6000700ec
:102f2000aa000700feff3a00ae0007000fb29700ac
:102f30009fb297002fb39700bfb39700b60007006a
:102f40000000520081805a0002015b0083815b0017
:102f500080b79f0091b79f00a2b79f00b3b79f00b3
:102f60000007eb00ac0007000020e10001a8e10031
:102f700002b0e10003b8e100010031001e002000b2
:102f80000e005600c0b79f004fb297000400e0004b
:102f90000700350010002000010020006011b8007b
:102fa00008047000898470000a0571008b85710027
:102fb0008d06e900b4ff3a000400e00003003d0084
:102fc0008f0007000f0040008aff07004fa89700fe
:102fd0000000e00004003a000fb497009fb497008f
:102fe0002fb59700bfb59700970007004f077800ef
:102ff0004f06be004f05be004f04be004f01b1009a
:1030000000000600881f780018002000881f780044
:103010008bff07008f87e9004f047800000006004f
:10302000801feb0086ff07008f87e9000000060085
:10303000889fbe008a9fbe008c1f78007b0007001f
:1030400005003d002f00070007003d003d00070080
:103050000006eb00040037003f00070002003d00bf
:10306000300007001c00200077000700e5ff070084
:103070000203be000002be000c00e00001003200ae
:10308000280007000400be000601be004f067800bd
:103090004f05be004f04be0000000600889fbe0022
:1030a0008a9fbe008c1f78006000070003003d006f
:1030b0001400070006003d0004003700260007004a
:1030c00003003d006000b8006011b8001d0007005b
:1030d0005d000700d2ff07000203be000002be0031
:1030e0000c00e000010032000e0007000400be00ea
:1030f0000601be004f0678004f05be004f04be001b
:10310000000006006000b8006011b800080450001c
:10311000898458000a0559008b8559001c0020003d
:10312000030037006000b8006011b80005003700e8
:10313000e00f5200e08f5a00e00f5b00e08f5b0071
:103140000000060004025000858258000603590062
:1031500087835900000006000006eb00f4ff3700eb
:103160000180400090b79f000001eb008fb09700f6
:103170000100e000000006000200700090b79f0010
:103180000180400080b79f000001eb00ffa897007e
:103190000100e000000006000200700080b79f0000
:1031a00001804000f0af9f000001eb00efa8970006
:1031b0000100e0000000060002007000f0af9f0078
:1031c0000182400020000700f50305008301d100c3
:1031d0000281d3008180d3000080d3008502e90002
:1031e0000000060000027200e4af9f0008044400e3
:1031f00089844c000a054d008b854d0000000600b7
:103200003fb29700cfb297005fb39700efb397003c
:1032100000fe2f00000006003fb09700cfb09700df
:103220005fb19700efb19700000006000205be00f5
:103230000004be00e00f5000e08f5800e00f59007e
:10324000e08f5900000006000800be000a01be0021
:1032500000000600889fbe008a9fbe008c1f780079
:103260000205be000004be000006eb00e00f5000a7
:10327000e08f5800e00f5900e08f590007003d0033
:103280006000b8006011b80008045000898458003c
:103290000a0559008b8559001c002000e00f5200e0
:1032a000e08f5a00e00f5b00e08f5b0002003d0002
:1032b0000f0007000c00a2000800be000a01be00bb
:1032c000710107000203be000002be000c00e00016
:1032d00001003200060007000400be000601be0027
:1032e0004f0678004f05be004f04be0000000600e8
:1032f0006000b8006011b8000402500085825800d8
:10330000060359008783590000000600020ab9002d
:10331000001bb9000200b800810042008100430098
:1033200000000600889fbe008a9fbe008c9fbe00e2
:103330000404be000605be00809fbe00829fbe0042
:1033400073010700040678000800be000a01be00f1
:103350006f010700840678004f03be004f02be00d5
:103360008d4f76007fb0970013003300f0ff2f00e1
:103370008b8f6b0006003b000d0666000c00a7005b
:103380000a00370007f0a600100020000a003700ee
:10339000880f5200898f5a008a0f5b008b8f5b0069
:1033a000030039001000200001003e000000200052
:1033b00007f0a7000000ea004f06be004f05be0060
:1033c0004f04be0000000600800078005002be00de
:1033d0005003be004439de00f700b200f37f200046
:1033e00003016100090032000218e10016003a00f2
:1033f000850172008301730083817300000820003f
:1034000015003a00400020001300370085017200cb
:10341000830173008381730005003a0004a8be0095
:1034200006a8be00100020000b0037000201e900d2
:103430000402420085824a0006034b0087834b004a
:103440000748a300f9ff32000740a00004a8be000f
:1034500006a8be002000200080009800920098007e
:1034600000000600680447000294be000094be00fd
:10347000fc0447008694be008494be0009007800d6
:10348000d1ff070008007800cfff070099007800ff
:10349000814f70000b003b000800be002e010700aa
:1034a0004f00b10003003700f3ff2700f2ff2f00a9
:1034b0006110b9004f06be004f05be004f04be00ac
:1034c0000080fa0000000600889fbe008304780098
:1034d0000300e0002c00350003003c000082700077
:1034e000040271002600320036432000c50020008f
:1034f0008383cf000a0039000541b1008283cf00e9
:10350000070039000541b1008183cf000400390074
:103510000541b1008083cf00010039000541b100b1
:1035200085c353006022b800120032000a003b003d
:1035300084827200610260008301d1000281d300a5
:103540008180d3000080d3000603e8008743e800b1
:10355000f7ff3a0007003700000040008180480074
:1035600002014900838149000603e9008743e9001d
:10357000f9ff3a009800070009f0a70003f0a00047
:103580004f04be000000060060001000e08018003c
:1035900060011900e0811900d3ff3b00033e2c00bd
:1035a000f7ff37002800fa00889fbe008a9fbe0000
:1035b0008c9fbe0007067800878669000c003b00e0
:1035c000030478008704780008f0a10009f0a10046
:1035d000840f5000858f5800860f5900890f5c00ba
:1035e000030033000cf0a20001003a000cf0a1002f
:1035f0009cff07006400e1005f0032007801470093
:103600006408e100610032006c01470074855700d6
:103610003200be001201be003a04be001a05be0010
:103620001e039000be0a90008503530006003d0073
:103630000004fd008104fd000205fd008305fd007e
:103640008703ea00050378000df8a30004003200a8
:1036500060041400e0841c0060051d00e0851d006e
:103660006022b8007d0320000d38e1008006eb00e9
:103670000b0039004433dd00f300b2008301730016
:1036800039003700848272000d027800e106640080
:103690008b85d1000a85d3008984d3000884d300a8
:1036a0008703e900f7ff3b000800400089804800dd
:1036b0000a0149008b81490004003b0060001000b2
:1036c000e080180060011900e08119000358a30090
:1036d000090032008d8272008482720061026000f3
:1036e0008301d1000281d3008180d3000080d30008
:1036f0000603e8001b0037000348a30017003a0048
:103700000600e000170034000603e9000d00a300e6
:10371000000048008180480002014900838149007f
:103720000348a3000f003a000600e000090034003f
:103730000603e900000040008180480002014900c2
:103740008381490001003a000003eb000348a30015
:10375000f5ff32006022b800020037008482720058
:10376000618266001c00070003f0a1000cf0a700b6
:1037700003f0a0004fff3700640147006408e10038
:1037800002003a000df8a30047ff3a003200be00e5
:103790001201be0047ff37006022b8000602200079
:1037a0000000d0008180d2000482d2008582d20045
:1037b0000000a0000202520083825a0003003b0076
:1037c0000202420083824a000000a1000603e900d1
:1037d000f3ff3a0000000600180020005700200008
:1037e000080453000d003d000600200097fc2f0048
:1037f0000740e1001e003400848272006102600014
:103800008301d1000281d3008180d3000080d300e6
:103810000804e800f8ff3a00470020006104600057
:1038200005047400040464000d00320061004000cf
:10383000e080480060014900e081490003b8a5002c
:10384000070032000603e8006538e10004003a0092
:103850008301d1000281d3008180d3000080d30096
:10386000f87f20000830e1000300350008037800ed
:103870006000b8006011b8004433dd00f300b2000e
:103880008301730000000600889fbe008a9fbe006f
:103890008c9fbe000404b8000506b80089044600e9
:1038a00060854e000606b8000a054600e0854e0019
:1038b0000706b8008b054600040eb80089044600d0
:1038c0000a854e00e0854d00050eb8000a05460049
:1038d0008b854e00060eb8008b0546000416b80016
:1038e0000a0546008b854e000516b8008b0546007c
:1038f000041eb8008b0546000800be000a01be0089
:103900004f06be004f05be004f04be00000006007b
:1039100005ff270005826100070032000428e1004e
:1039200001003200240005000600070001003a00f3
:10393000440005000408050002000700f9ff3a00f2
:10394000140005006f826100810270008502710021
:103950008502720000000600e48240001078a30097
:1039600007003200640240001178a3003400be005a
:103970001401be00040032000330a700000006005e
:103980003500be001501be000330a0000000060097
:103990000000fa00c6c2a900cde2a900d902a90020
:1039a000ea01070000c3b3000c010700e3010700b0
:1039b00000c3b30009010700dc01070000c3b30026
:1039c000060107006500070000c2b30003010700fd
:1039d0006200070080c2b3007f0007005f0007009d
:1039e00080c0b3007c0007005c00070010c0b3007b
:1039f000790007005900070060c0b3007600070097
:103a00005600070055000700e0c0b3007200070031
:103a1000520007000080fa00000006000000fa00d3
:103a200010c0b3006c0007004c0007000080fa00d3
:103a3000000006000000fa0020c0b3006600070086
:103a4000460007000080fa00000006000000fa00af
:103a500000c8b30060000700400007000080fa00c3
:103a6000000006000000fa0000ccb3005a00070076
:103a70003a0007000080fa00000006000200fa0089
:103a8000000f780005003700340007001e007800a2
:103a900010407800190107001e0fe8001e00780092
:103aa000104078000004e000f7ff3a000080fa00c0
:103ab000000006000000fa0000c1b3004600070045
:103ac000260007000080fa00000006000000fa004f
:103ad00040c1b30040000700200007000080fa004a
:103ae000000006000000fa0080c1b3003a000700a1
:103af0001a0007000080fa00000006000000fa002b
:103b0000e0c1b30034000700140007000080fa0091
:103b1000000006000000fa00c0c0b3002e0007003d
:103b20000e0007000080fa00000006000000fa0006
:103b3000e0c0b30028000700080007000080fa007a
:103b4000000006000000fa00f0c0b30022000700e9
:103b5000020007000080fa00000006000200fa00e0
:103b600010c0b300004f7800d262a800d242a80073
:103b7000d222a800d202a80068010700d1e2a90061
:103b8000dd02a80065010700640107000d00370091
:103b9000cac2a8006101070060010700d4c2bf00cb
:103ba0000080fb004300de0061406000004f7800b1
:103bb0005a01070059010700cac2a90057010700ae
:103bc000560107001e04e000f1ff3a00dd02a900e3
:103bd0000080fa00000006000200fa00004f7800a2
:103be000d1e2a900dd02a900d262a900d242a90057
:103bf000d222a900d202a9009e00fb0000082000ea
:103c0000008060004780de0061406000614060002d
:103c1000004040000040400000414000612d200075
:103c20009140780070cfb30000c060000240700087
:103c3000d6e2b7009e00fb00000420000080600078
:103c40004680de006140600061406000004040004e
:103c500000414000612d200091407800b0cfb300ba
:103c600000c0600002407000d6e2b7009e00fb007a
:103c700000022000008060004580de00614060009e
:103c80006140600000414000612d200091407800bb
:103c9000d0cfb30000c0600002407000d6e2b70091
:103ca0001e00fb00700060004480de006140600088
:103cb00061416000612d200091407800e0cfb300a9
:103cc00000c0600002407000d6e2b7001301070098
:103cd000cac2a80011010700cac2a9000f0107004b
:103ce000d1e2a900dd02a9001e00fb00680060000f
:103cf0004380de00614060006140600000404000a1
:103d00000040400000414000612d200091407800bb
:103d100070cfb30000c0600002407000d6e2b70070
:103d20001e00fb00640060004280de006140600015
:103d3000614060000040400000414000612d2000d3
:103d400091407800b0cfb30000c060000240700026
:103d5000d6e2b7001e00fb00620060000080d100c8
:103d6000614060006140600000414000612d200022
:103d700091407800d0cfb30000c0600002407000d6
:103d8000d6e2b7001e4078006140600061406000ec
:103d90006140600061416000612d20009140780029
:103da000e0cfb30000c0600002407000d6e2b70070
:103db000da000700cac2a800d8000700cac2a900da
:103dc000d6000700d262a800d242a800d222a800e2
:103dd000d202a8000080fa00000006000200fa00eb
:103de000004f7800d1e2a900dd02a900d262a9004b
:103df000d242a900d222a900d202a9009e00fb0053
:103e000000082000008060004780de006140600004
:103e10006140600000404000004040000041400020
:103e2000612d20009140780070cfb30000c0600089
:103e300002407000d6e2b7009e00fb0000042000a4
:103e4000008060004680de006140600061406000ec
:103e50000040400000414000612d2000914078006a
:103e6000b0cfb30000c0600002407000d6e2b700df
:103e70009e00fb0000022000008060004580de0004
:103e8000614060006140600000414000612d200001
:103e900091407800d0cfb30000c0600002407000b5
:103ea000d6e2b7001e00fb00700060004480de0018
:103eb0006140600061416000612d20009140780008
:103ec000e0cfb30000c0600002407000d6e2b7004f
:103ed00092000700cac2a80090000700cac2a90049
:103ee0008e000700d262a800d242a800d222a80009
:103ef000d202a8000080fa00000006000200fa00ca
:103f0000004f7800d1e2a800dd02a900d262a9002a
:103f1000d242a900d222a900d202a9009e00fb0031
:103f200000082000008060004780de0061406000e3
:103f300061406000004040000040400000414000ff
:103f4000612d20009140780070cfb30000c0600068
:103f500002407000d6e2b7009e00fb000004200083
:103f6000008060004680de006140600061406000cb
:103f70000040400000414000612d20009140780049
:103f8000b0cfb30000c0600002407000d6e2b700be
:103f90009e00fb0000022000008060004580de00e3
:103fa000614060006140600000414000612d2000e0
:103fb00091407800d0cfb30000c060000240700094
:103fc000d6e2b7001e00fb00700060004480de00f7
:103fd0006140600061416000612d200091407800e7
:103fe000e0cfb30000c0600002407000d6e2b7002e
:103ff0004a000700cac2a80048000700cac2a900b8
:1040000046000700d1e2a800dd02a9001e00fb0067
:10401000680060004380de00614060006140600035
:10402000004040000040400000414000612d200061
:104030009140780070cfb30000c060000240700073
:10404000d6e2b7001e00fb00640060004280de0084
:10405000614060006140600000404000004140005d
:10406000612d200091407800b0cfb30000c0600007
:1040700002407000d6e2b7001e00fb006200600044
:104080000080d1006140600061406000004140005c
:10409000612d200091407800d0cfb30000c06000b7
:1040a00002407000d6e2b7001e4078006140600018
:1040b000614060006140600061416000612d20004e
:1040c00091407800e0cfb30000c060000240700073
:1040d000d6e2b70011000700cac2a8000f0007000f
:1040e000cac2a9000d000700d262a800d242a800ef
:1040f000d222a800d202a800dd02a900d1e2a900c4
:104100000080fa00000006000000060031062000d2
:104110008100e900feff3a0000000600610c20006b
:104120008100e900feff3a0000000600215c20004b
:104130008100e900feff3a000000060001002c00ab
:104140008100e900feff3a000000060001002c009b
:104150008100e900feff3a0001002c008100e90027
:10416000feff3a0001002c008100e900feff3a004a
:10417000000006000800fa00004f78001147980080
:10418000224798002307980034079800113920002f
:104190009140780080cfb30000c060000024a000f0
:1041a00091e3b700013920009140780000ceb300c0
:1041b00080c0600000c8b30080cf5000f9ff3a0013
:1041c0009163a800213920009140780000ccb30011
:1041d00000c0600092e3b70092c3bf00f043b2009a
:1041e00092e3b700413920009140780080cfb300be
:1041f00000c0600094e3b70041392000914078008e
:1042000070ccb30000c060008041b30094e3b700fd
:10421000513920009140780080cfb30000c0600089
:104220000004a00095e3b7006e63a9008ee3a90027
:104230008e43a900be009000f07f200080806000c7
:10424000f07f20000080600000004000000140007e
:104250008119800030002e00008060000200700094
:10426000801988003003a8008e03a900ae009000da
:10427000f07f200080806000f07f200000806000e0
:1042800000004000000140000118800030002e00b6
:104290000080600002007000001888000003a90080
:1042a0001e4090000004e00003003a002e40900001
:1042b0000004e0000e0032008f60a8008760a900b3
:1042c0000000eb00c01c88001e4090000004e000cd
:1042d000020032009803a8009603a9002e40900027
:1042e0000004e000020032009843a8009643a900b1
:1042f0009e40780067c0600067416000113920006f
:104300009140780080cfb30000c060000240700090
:1043100091e3b70090c3bf000080fb004500de00c2
:104320008080fb001e80fb00808f5000f9ff3a0068
:104330000080fa00000006000000fa0096c3bf00eb
:104340000080fb00610060000080fa0000000600b1
:104350000000fa0096c3bf000080fb004200de00b0
:104360000080fb00610060000080fa000000060091
:104370000000fa008760a9000080fa000000060033
:104380000000fa009603a9000080fa000000060071
:104390000000fa009643a9000080fa000000060021
:1043a0000800fa001007980021079800624798005b
:1043b0006003a9006023a9001e009000f043b20032
:1043c000f043b200f043b2000040400080404000a3
:1043d00060c3bf00634060000140700060e3b7004d
:1043e0009e009000007c2000008060004600de00ff
:1043f0007f4060000040400000404000804040009e
:1044000061c3bf00674060000140700061e3b70016
:104410006e4090006f4060006f40600000404000c0
:1044200000404000004140004136200091407800ab
:1044300070c8b30000c060000240700064e3b700c1
:104440000040eb00004f78000b0037001e80fb009f
:104450008000780060362000008140001e80fb0054
:10446000800078002e00900000804000104078000e
:10447000004978001e4fe8006e4090009e4f1000eb
:10448000f2ff39006e63a8006ec3bf006840600091
:104490000004e000fcff3a000080fa000000060083
:1044a0000200fa006ec3bf00684060000004e00034
:1044b00003003a0010002000000f780002003700cf
:1044c0000000eb00000f78001e0078000080fa006a
:1044d000000006000000fa00001c80004200de0020
:1044e000f17f2000010060000080fa00000006005b
:1044f0000000fa0084c3bf006f4060000080fb0032
:104500000080fa00000006000600fa00100798007c
:1045100084c3bf006f406000004f78000040eb0094
:1045200010479800560037001e4090000080fb00a6
:10453000200798002e009000e30f50002c0032005e
:104540002e009000e30f50000a003c002e00900067
:10455000e10f5000190032002e009000e10f5000d2
:104560001e003c002e0090000000e0000e00320013
:10457000400037002e009000e50f50002900320067
:104580002e009000e50f5000210035002e00900015
:10459000e60f50002b0032002e009000e70f500075
:1045a0002d00320033003700301c8000804078003e
:1045b0001e009000014878002e0037001e00900079
:1045c0000001e800311c800000f02f000080600036
:1045d0004800de0000497800260037001e009000e9
:1045e0008080e800401c800080487800210037006f
:1045f0001e00900063014000411c800000f02f006d
:10460000008060004800de00004978001900370093
:104610001e009000e4004000501c8000804878009c
:10462000140037001e00900065014000511c8000fe
:1046300000f02f00008060004800de000049780094
:104640000c0037001e009000e6004000601c800057
:1046500080487800070037001e0090006701400086
:10466000611c800000f02f00008060004800de0028
:10467000004978001e4090000040e8001047980074
:104680001e4090009e4f5000a7ff39000080fa00a6
:10469000000006000000fa008ee3a9000080fa0086
:1046a000000006000200fa008ec3bf0001c8b3007c
:1046b000014060000004e000030032001000200010
:1046c000000f7800020037000000eb00000f7800b8
:1046d0001e0078000080fa00000006000000fa00ca
:1046e000ff3ffc000080fa00000006000000fa0016
:1046f0000000fc000080fa00000006000000fa0044
:104700000060fe000080fa00000006002800fa00a9
:10471000889fbe0001003700fa0007008085200056
:104720008041eb0012c0b30080c0eb001501070010
:104730000080fb000000d100610060000004e00088
:10474000f5ff3a008085200012c0b30080c0eb0066
:104750004b0107008e80e8000040eb00e048980025
:1047600060488000301798003e109000e40f500021
:10477000680032003e109000e40f50000a003e0036
:104780003e109000e20f50003e0032003e109000bc
:10479000e20f500015003e003e109000e10f500067
:1047a00054003200620037003e109000e70f5000c6
:1047b000220032003e109000e70f500004003e003f
:1047c0003e109000e50f50003c00320058003700ca
:1047d0003e109000ea0f5000210032003e10900081
:1047e000eb0f50000900320051003700e09020002c
:1047f000000f78001e0078001000be000e81e80057
:104800002001980031019800490037008e80e800af
:1048100010c0b300e04898000e81e80000002000be
:10482000010c2c0020019800310198008e80e800d6
:104830000040eb00c04898003d0037008e80e80043
:1048400010c0b300d04898000e80e8001000be00f1
:104850000e81e800400198005101980034003700b3
:104860008e80e8000040eb00d04898000e81e80000
:104870000000200001f82b00400198005101980031
:104880002b0037000e80e80050489000e14f5000a8
:1048900027003a000e80e800d00090004000900011
:1048a000a2702d0033ba230036f707000e81e8000e
:1048b00040019800510198001d0037000e80e8006b
:1048c00050489000e14f500019003a000e80e80077
:1048d000d000900040009000a2702d0033ba230059
:1048e00027f707000e81e800400198005101980069
:1048f0000f0037000e80e80050489000e14f500054
:104900000b003a008e80e80010c0b300c048980049
:10491000070037000e80e80050489000e14f50003b
:1049200003003a008e80e8000040eb00c048980089
:104930000e80e8001000be000004be000e80e800fb
:10494000b0009000200090006266260063182400ea
:1049500069f707000001be000800be0009f7070064
:104960000e81e8000089be000e80e8001000be0045
:1049700010488800214888000e80e800d000900090
:104980004000900030488800414888000e80e800d0
:10499000504890000ae9b7000e80e80040489000b7
:1049a0000be9b700e0852000219020005b010700a3
:1049b0001afc07000e80e8001000be0072014700dc
:1049c000809fbe0040d02a00801f7800020078003f
:1049d00055ee0700e68757007200470027fc0700e6
:1049e00020fc07000e80e800b0009000200090003e
:1049f00072014700809fbe00c0d02a00801f78004f
:104a00000200780048ee0700e68757007200470072
:104a10001afc070041ff37003600f800809fbe00f7
:104a2000829fbe00849fbe00869fbe003400f800b7
:104a300000c0b300a00188000000fa004cfe07008f
:104a40003dfe07000004e0000c0032004cfe0700b1
:104a5000a0fe070060488800a5fe070016e9b70021
:104a6000e0902000a8fe07000aff070080852000d4
:104a700022c0b30080c0eb00810007000080fa0074
:104a80003400f9004f03be004f02be004f01be00cc
:104a90004f00be003600f900004006000000fa009a
:104aa000bbfb07000002eb008001eb0012c0b3006b
:104ab0008040eb0020c0b300aefd070056010700a8
:104ac0002181200092c0b3006038220064010700f9
:104ad00011882000808520000041eb0013000700b2
:104ae000b5010700feff37000000fa00af44880060
:104af000504280009000900081874700a000900005
:104b00000140010050428000efb89700210098005a
:104b1000a1448000e480400081805700110098008b
:104b2000ae4480000080fa00000006000600fa0093
:104b3000000f78001107980042479800e7fe070031
:104b40009e0078000000eb00800878001e007800ce
:104b50009e009000110098009e00780020c0b300d5
:104b6000c04098001e00780010009000ce409000d9
:104b700001487800ddfe07000000eb000080fa002d
:104b8000000006000a00fa0010079800414798004c
:104b90005247980063479800d0fe07000040eb00a2
:104ba000104798001e009000100090000000e000e8
:104bb000290032001e00900010009000104f780075
:104bc0005e4090000080fb00400798004e0090007f
:104bd000e20f5000170032004e009000e40f50002a
:104be0000c0032004e009000e10f50000100320036
:104bf000190037004e4090001e4060000004e000a5
:104c0000150032001e4090000040e8001047980058
:104c1000110037004e4090001e4068000004e00084
:104c20000d003a001e4090000040e8001047980038
:104c3000090037004e4090001e4f60004e4090002b
:104c40001e4068000004e00003003a001e4090008f
:104c50000040e800104798009e4090006e41900090
:104c60001e009000ff010700104798009ffe0700fc
:104c70001e4090000080fb000080fa00000006004b
:104c80000800fa00200798006147980072479800d2
:104c900092fe0700ae009000c0842000808f50007c
:104ca00004003900618720002e009000810f500021
:104cb0000300360020c0b3002047980052003700a0
:104cc0002e00900040409000e24f50000300320060
:104cd00060c0b300204798004b0037002e009000c2
:104ce00090009000010f78001e00e00003003a00e1
:104cf00050c0b30020479800430037007e4090002a
:104d00000080fb000000d100610060000004e000b2
:104d1000060032001e007800904078006e4090003f
:104d200000c0700020479800080037001e0078007f
:104d3000904178006e419000024078000080ea00c7
:104d40008180ea0000c06100204798002e4090005a
:104d50009e00780091407800814f500003003a0097
:104d600040c0b3002047980027003700ae409000b5
:104d70001e007800014878007e4090000080fb0013
:104d80000000d100610060000004e0001c0032005f
:104d90002e009000100078001007980015003700d2
:104da000f04380000000e00003003a001e00900085
:104db000f043880003003700e14380001e009000ac
:104dc000b00098001e009000e04388001e00900094
:104dd000b00090002e009000010878009e00900026
:104de0000000eb00b00098002e009000100078004a
:104df000100798001e0090000000e000e8ff3a0055
:104e00000040eb002047980038fe07002e4090003d
:104e10000080fb000080fa00000006000400fa0099
:104e2000000f7800110798002cfe07009e00780004
:104e30000000eb00800878001e0078009e009000c3
:104e4000110098009e00780030c0b300c040980068
:104e500026fe07000000eb000080fa0000000600bc
:104e60000800fa0010079800210798006247980090
:104e70001afe07000040eb00004f78001e00900073
:104e8000100090000000e000030032001e40780097
:104e90000040e800004f78009e4078006e4190008e
:104ea0001e0090006f010700004f78001e40780040
:104eb0000080fb004300de00610060000004e000b1
:104ec000080032001e009000900090002e0090001c
:104ed000010878009e0090000000eb009000980010
:104ee000090037001e4078000080fb004200de0011
:104ef000610060000004e00003003200ae0090009a
:104f00000000eb0080087800f8fd07001e407800e4
:104f10000080fb000080fa00000006000600fa0096
:104f20001007980021079800ecfd07009e009000f4
:104f3000c0842000808f5000040039006187200069
:104f40001e009000810f50000300360020c0b30007
:104f5000004f78002b0037001e009000404090006a
:104f6000e34f50000300320060c0b300004f7800f0
:104f7000240037001e009000100090000000e000a8
:104f80000300320040c0b300004f78001d0037001e
:104f90001e009000ae009000110098001e009000ce
:104fa00010007800000f78001e0078000000e0007c
:104fb00012003200f04380000000e00003003a00dd
:104fc0001e007800f043880003003700e1438000b2
:104fd0001e007800b00098001e007800e0438800b2
:104fe0001e007800b00090001e00900001087800bc
:104ff0009e0078000000eb00b00098000040eb003d
:10500000004f7800b9fd07001e4078000080fb00cb
:105010000080fa00000006000000fa000000eb002b
:10502000404288000000eb00504288000000eb0086
:10503000604488000040eb0092e8b7006000b800d0
:1050400070448800814488000000eb00e043880041
:105050000000eb00f04388000080fa00000006002a
:105060000800fa00000f78001107980042479800e6
:105070009e00900000802000808f500004003900c6
:10508000618320001e009000810f50000300360055
:1050900020002000300798002a0037008ffd07000d
:1050a0009e0090000000eb00900098004e409000a1
:1050b000804078000174a1001e00900024000700c9
:1050c0009e009000110078000040a0000050a10058
:1050d0000060a100800878009e0090001100780018
:1050e0000070a100800878001e0090009e007800eb
:1050f0002100980070448000814480008040780046
:105100001e009000015098004e4090000004e00006
:10511000090035009e009000110078000040a000ba
:105120000050a1000060a000800878008184200069
:105130001e0090003e0107006cfd07000000eb0020
:10514000300798003e0090000080fa000000060042
:105150000600fa0010079800414798004e40900062
:10516000ef4f500005003600f0c0b30040479800f4
:1051700010c0b300004f7800020037000040eb0081
:10518000004f78004e409000ef4060009e0190007c
:10519000130078008180fb006f81600001ff2f0009
:1051a0000100600002007000800978001e80fb0092
:1051b0000080fa00000006000000fa0047fd07002a
:1051c0004efd070012003700f04380005042880077
:1051d0005042800030009000f0438800514280002f
:1051e0000000eb00b0009800504280008184200055
:1051f0000f010700f04380000000e00002003a00c9
:105200000000eb00e043880038fd070033fd070095
:10521000f04380000000e000ebff3a006d00370033
:1052200092c8bf000040e90092e8b70060448000e7
:1052300050428800504280000000e0005e003200d2
:1052400050428000805090008140e9000150980059
:105250005900370050428000700090006044880080
:1052600052428000704480008144800000519800c8
:10527000504280009000780000072000808060008d
:1052800000022000808f50000a003a005042800047
:10529000900078000140a0000150a1000160a00032
:1052a000010878005042800081842000e00007005f
:1052b0003d00370050428000900078000007200039
:1052c0008080600000072000808f50001b003a00a3
:1052d00006fd070050428000200090000000010001
:1052e000fefc070050428000100078006f00600054
:1052f0000000e00004003a005142800011007800f4
:105300000070a10080087800504280009000780072
:1053100000082000008060000000e0002200320051
:1053200051428000504280002048900080509800f8
:1053300050428000f80007001b00370050428000f8
:10534000500090000000e000170032005042800042
:105350005000900080007800504280003d0107001e
:1053600050428000e18720003a010700504280004f
:105370008184200037010700514280000000eb00cb
:10538000d000980051428000110078000040a10038
:105390000050a0000060a00080087800504280000b
:1053a00081842000a20007006044800050428800f1
:1053b000cefc0700c9fc0700504280000000e0005e
:1053c0000400320050428000005090000004e000d1
:1053d000a0ff320092c8bf000004e00090ff3a0036
:1053e0004042800050428800504280000000e000af
:1053f0001600320040428000300090004042880099
:1054000052428000504280001000be0030019800df
:1054100041019800b5fc0700b3fd0700affc070091
:1054200050428000900078000007200080806000db
:1054300000052000808f500007003a005042800095
:10544000818420007a00070003003700a7fc0700d2
:105450006a010700a1fc0700a4fc07000080fa0015
:10546000000006000800fa00100798004147980065
:1054700052479800504280009000780000072000ba
:105480008080600000062000808f50000d003a00f0
:1054900051428000110078000040a0000050a1009f
:1054a0000060a00080087800514280001100780060
:1054b0000070a1008008780050002000300798009c
:1054c0005800370050428000b00090000140a0001a
:1054d0000150a1000160a000310098004e409000f2
:1054e0000004e00027003200504280009000780065
:1054f00000082000008060000000e0001a00320078
:1055000051428000110078000070a10080087800ee
:1055100050428000500090000000e0000500320082
:10552000504280008000eb00510098005042800003
:105530000001070080c0b300004f78005142800096
:10554000110078000040a0000050a1000060a00001
:10555000800878001e4078000004a0000080fb0056
:10556000300798002f00370051428000110078006a
:105570000070a0008008780021002000310798000a
:10558000280037005e4090000004e00007003a0069
:1055900051428000110078000040a1000050a1009d
:1055a0000060a0008008780015003700504280009d
:1055b0009000780000072000808060000005200037
:1055c000808f50000e003a00514280001100780098
:1055d0000040a1000050a1000060a00080087800f9
:1055e00050428000de409000015098005042800000
:1055f0009e00900051009800504280004600070035
:1056000051428000110078000070a00080087800ee
:105610009e009000504280000500070020002000fe
:10562000300798003e0090000080fa00000006005d
:105630000c00fa0030079800410798004e009000d7
:1056400090007800210798002e0090000000e000f4
:1056500009003a004e009000be009000010878005a
:10566000be0090000000eb00b00098000000eb00ce
:1056700050079800250037000000eb001007980045
:105680003e009000100078006f406000004f7800ee
:1056900005003700ae009000110798002e00900022
:1056a000b0009000210798002e0090000000e0005c
:1056b000070032009e80fb002e0090001000780052
:1056c0006f4060000080fb00808f5000f1ff3d00c4
:1056d0001e0090000000e00004003a004e00900020
:1056e000be00900001087800030037001e00900003
:1056f000be009000310098003e009000ae00900087
:10570000310098000000eb00500798005e00900008
:105710000080fa00000006000a00fa003007980036
:1057200060448000200798002e0090000000e000f8
:1057300008003a00be00900061448800be0090005e
:105740000000eb00f00098000000eb00400798001c
:105750003d0037000000eb00100798002e0090007d
:1057600080509000014f78000b0037002e00900011
:10577000100798002e009000f0009000210798007c
:105780002e0090000000e000030032002e00900088
:10579000005090001e4f40002e0090000000e000de
:1057a000040032003e009000005090009e4f5000d8
:1057b000eeff31002e0090000000e00004003200f7
:1057c0002e009000805090001e407800014f500045
:1057d0003e009000005090009e4050003e0090001f
:1057e000015098002e0090000000e00008003200f8
:1057f0003e00900080509000014f78002e009000f5
:10580000005090009e4050002e00900001509800e3
:105810001e0090000000e00003003a003e009000ef
:1058200060448800030037001e009000be00900016
:10583000710098003e009000ae009000710098004a
:105840000000eb00400798004e0090000080fa0036
:10585000000006000c00fa0030079800410798008d
:105860004e00900090007800110798000000eb00b7
:10587000200798003e009000b0009000010f7800d3
:10588000240037009e0090003e009000808f500062
:105890001b003a002e0090000000e00003003a00d8
:1058a0004e0090001e087800030037002e00900084
:1058b0009e00780031009800ce009000c088200043
:1058c000808f50000b003a001e00e00009003200fb
:1058d0003e00900000509000404798001e00780065
:1058e000805090004e40900080c040001e00780024
:1058f000015098000000eb00500798000a003700a4
:105900009e009000210798001e009000b0009000bb
:10591000110798001e0090000000e000d9ff3a0037
:1059200010002000500798005e0090000080fa00f0
:10593000000006000a00fa0030079800604480006a
:10594000100798000000eb00200798003e00900030
:10595000f0009000010f7800200037009e009000ba
:105960003e009000808f500017003a002e009000fb
:105970000000e00003003a001e0078006044880048
:10598000030037002e0090009e0078007100980000
:105990001e00e000090032003e0090000050900020
:1059a000404798001e007800805090004e409000c4
:1059b00080c040001e007800015098000000eb00fd
:1059c000400798000a0037009e00900021079800c9
:1059d0001e009000f0009000110798001e0090003b
:1059e0000000e000ddff3a001000200040079800b2
:1059f0004e0090000080fa00000006000000fa004f
:085a00000080fa00000006001e
:020000040000fa
:0200000401f009
:04000000ffff0000fe
:020000040000fa
:0200000401f009
:04000400ff7f00007a
:020000040000fa
:0200000401f009
:040008007cff000079
:020000040000fa
:0200000401f009
:04001400ffff0000ea
:020000040000fa
:10000800d62d0000d62d0000d62d0000d62d0000dc
:10001800d62d0000d62d0000d62d0000d62d0000cc
:10002800d62d0000d62d0000d62d0000d62d0000bc
:10003800d62d0000d62d0000d62d0000d62d0000ac
:10004800d62d0000d62d0000d62d0000d62d00009c
:10005800d62d0000d62d0000d62d0000d62d00008c
:10006800d62d0000d62d0000d62d0000d62d00007c
:10007800d62d0000d62d0000d62d0000d62d00006c
:10008800d62d0000d62d0000d62d00000c2500002e
:10009800d62d0000d62d0000d62d0000d62d00004c
:1000a800d62d0000d62d0000d62d0000d62d00003c
:1000b800d62d0000d62d0000d62d0000d62d00002c
:1000c800d62d0000d62d0000d62d0000d62d00001c
:1000d800d62d0000d62d0000d62d0000d62d00000c
:1000e800d62d0000d62d0000d62d0000d62d0000fc
:0800f800d62d0000d62d0000fa
:020000040000fa
:10010800d62d0000d62d0000d62d0000d62d0000db
:10011800d62d0000d62d0000d62d0000d62d0000cb
:10012800d62d0000d62d0000d62d0000d62d0000bb
:10013800d62d0000d62d0000d62d0000d62d0000ab
:10014800d62d0000d62d0000d62d0000d62d00009b
:10015800d62d0000d62d0000d62d0000d62d00008b
:10016800d62d0000d62d0000d62d0000d62d00007b
:10017800d62d0000d62d0000d62d0000d62d00006b
:10018800d62d0000d62d0000d62d00000c2500002d
:10019800d62d0000d62d0000d62d0000d62d00004b
:1001a800d62d0000d62d0000d62d0000d62d00003b
:1001b800d62d0000d62d0000d62d0000d62d00002b
:1001c800d62d0000d62d0000d62d0000d62d00001b
:1001d800d62d0000d62d0000d62d0000d62d00000b
:1001e800d62d0000d62d0000d62d0000d62d0000fb
:0801f800d62d0000d62d0000f9
:020000040000fa
:105a0800766500006c3a0000202500006600000062
:105a180061630000656c00003a2000002566000004
:045a2800000000007a
:020000040000fa
:105a2c0000080000980000000000000002090000bf
:105a3c001600000000000000180900001200000011
:105a4c000200000001000200000400000800100029
:105a5c0000000000202b2d00233000006009000006
