:020000040000fa
:080000000401040000000000ef
:020000040000fa
:1002000000000000000000008f89200080ff200017
:100210000001880000000000050007000c00070036
:100220006c070200000000000040da000000fe0041
:100230004440a900000020000000e000030032005c
:1002400000002000a00188004440a8000000060033
:10025000c0e12000010020001600370062004000cd
:10026000e0804800910188009001ba0062004000df
:10027000e0804800910188009002ba0062004000ce
:10028000e08048000002eb006028e10005003a0031
:100290008301e90007003300038009000059eb00e7
:1002a000040037006128e100010032000082eb0009
:1002b00005000700910188001001ba000200e0006b
:1002c000e6ff3a00000005009101880080027800f6
:1002d00062004000e08048003559ba008301e9001f
:1002e000080032002559ba008301e90005003200f8
:1002f0000400e000f4ff320015d9ba008301e900e0
:10030000f1ff3a0000000600000006003106200060
:100310008100e900feff3a0000000600610c2000a9
:100320008100e900feff3a0000000600215c200089
:100330008100e900feff3a000000060001002c00e9
:100340008100e900feff3a000000060001002c00d9
:100350008100e900feff3a0001002c008100e90065
:10036000feff3a0001002c008100e900feff3a0088
:10037000000006000800fa00004f780011479800be
:10038000224798002307980034079800113920006d
:100390009140780080cfb30000c060000024a0002e
:1003a00091e3b700013920009140780000ceb300fe
:1003b00080c0600000c8b30080cf5000f9ff3a0051
:1003c0009163a800213920009140780000ccb3004f
:1003d00000c0600092e3b70092c3bf00f043b200d8
:1003e00092e3b700413920009140780080cfb300fc
:1003f00000c0600094e3b7004139200091407800cc
:1004000070ccb30000c060008041b30094e3b7003b
:10041000513920009140780080cfb30000c06000c7
:100420000004a00095e3b7006e63a9008ee3a90065
:100430008e43a900be009000f07f20008080600005
:10044000f07f2000008060000000400000014000bc
:100450008119800030002e000080600002007000d2
:10046000801988003003a8008e03a900ae00900018
:10047000f07f200080806000f07f2000008060001e
:1004800000004000000140000118800030002e00f4
:100490000080600002007000001888000003a900be
:1004a0001e4090000004e00003003a002e4090003f
:1004b0000004e0000e0032008f60a8008760a900f1
:1004c0000000eb00c01c88001e4090000004e0000b
:1004d000020032009803a8009603a9002e40900065
:1004e0000004e000020032009843a8009643a900ef
:1004f0009e40780067c060006741600011392000ad
:100500009140780080cfb30000c0600002407000ce
:1005100091e3b70090c3bf000080fb004500de0000
:100520008080fb001e80fb00808f5000f9ff3a00a6
:100530000080fa00000006000000fa0096c3bf0029
:100540000080fb00610060000080fa0000000600ef
:100550000000fa0096c3bf000080fb004200de00ee
:100560000080fb00610060000080fa0000000600cf
:100570000000fa008760a9000080fa000000060071
:100580000000fa009603a9000080fa0000000600af
:100590000000fa009643a9000080fa00000006005f
:1005a0000800fa0010079800210798006247980099
:1005b0006003a9006023a9001e009000f043b20070
:1005c000f043b200f043b2000040400080404000e1
:1005d00060c3bf00634060000140700060e3b7008b
:1005e0009e009000007c2000008060004600de003d
:1005f0007f406000004040000040400080404000dc
:1006000061c3bf00674060000140700061e3b70054
:100610006e4090006f4060006f40600000404000fe
:1006200000404000004140004136200091407800e9
:1006300070c8b30000c060000240700064e3b700ff
:100640000040eb00004f78000b0037001e80fb00dd
:100650008000780060362000008140001e80fb0092
:10066000800078002e00900000804000104078004c
:10067000004978001e4fe8006e4090009e4f100029
:10068000f2ff39006e63a8006ec3bf0068406000cf
:100690000004e000fcff3a000080fa0000000600c1
:1006a0000200fa006ec3bf00684060000004e00072
:1006b00003003a0010002000000f7800020037000d
:1006c0000000eb00000f78001e0078000080fa00a8
:1006d000000006000000fa00001c80004200de005e
:1006e000f17f2000010060000080fa000000060099
:1006f0000000fa0084c3bf006f4060000080fb0070
:100700000080fa00000006000600fa0010079800ba
:1007100084c3bf006f406000004f78000040eb00d2
:1007200010479800560037001e4090000080fb00e4
:10073000200798002e009000e30f50002c0032009c
:100740002e009000e30f50000a003c002e009000a5
:10075000e10f5000190032002e009000e10f500010
:100760001e003c002e0090000000e0000e00320051
:10077000400037002e009000e50f500029003200a5
:100780002e009000e50f5000210035002e00900053
:10079000e60f50002b0032002e009000e70f5000b3
:1007a0002d00320033003700301c8000804078007c
:1007b0001e009000014878002e0037001e009000b7
:1007c0000001e800311c800000f02f000080600074
:1007d0004800de0000497800260037001e00900027
:1007e0008080e800401c80008048780021003700ad
:1007f0001e00900063014000411c800000f02f00ab
:10080000008060004800de000049780019003700d1
:100810001e009000e4004000501c800080487800da
:10082000140037001e00900065014000511c80003c
:1008300000f02f00008060004800de0000497800d2
:100840000c0037001e009000e6004000601c800095
:1008500080487800070037001e00900067014000c4
:10086000611c800000f02f00008060004800de0066
:10087000004978001e4090000040e80010479800b2
:100880001e4090009e4f5000a7ff39000080fa00e4
:10089000000006000000fa008ee3a9000080fa00c4
:1008a000000006000200fa008ec3bf0001c8b300ba
:1008b000014060000004e00003003200100020004e
:1008c000000f7800020037000000eb00000f7800f6
:1008d0001e0078000080fa00000006000000fa0008
:1008e000c602a900c622a900c642a900d202a800d9
:1008f000d222a800d242a800d262a8000080fa004a
:10090000000006000200fa00d202a800d222a800cd
:10091000d242a800d262a800c602a900c622a8003e
:10092000c642a800ca02a900ca22a800ca42a8005a
:1009300076fe0700d4c2bf00614060000004e00002
:1009400003003a000000eb00000f78005a00370067
:10095000d4c2bf00624060000004e00003003a001f
:1009600030002000000f780053003700d4c2bf00d1
:10097000644060000004e00003003a0060002000d2
:10098000000f78004c003700d4c2bf006840600000
:100990000004e00003003a0090002000000f7800ff
:1009a00045003700c602a800c622a900c642a8001a
:1009b000ca02a800ca22a900ca42a80053fe070022
:1009c000d4c2bf00614060000004e00003003a00b0
:1009d00010002000000f780037003700d4c2bf009d
:1009e000624060000004e00003003a004000200084
:1009f000000f780030003700d4c2bf0064406000b0
:100a00000004e00003003a0070002000000f7800ae
:100a100029003700d4c2bf00684060000004e00035
:100a200003003a00a0002000000f780022003700e9
:100a3000c602a800c622a800c642a900ca02a80091
:100a4000ca22a800ca42a90030fe0700d4c2bf00d3
:100a5000614060000004e00003003a002000200034
:100a6000000f780014003700d4c2bf00624060005d
:100a70000004e00003003a0050002000000f78005e
:100a80000d003700d4c2bf00644060000004e000e5
:100a900003003a0080002000000f780006003700b5
:100aa000d4c2bf00684060000004e0009aff3a0032
:100ab000b0002000000f78001e0078000080fa00cf
:100ac000000006000200fa00d202a800d222a8000c
:100ad000d242a800d262a800c602a900c622a8007d
:100ae000c642a800ca02a900ca22a800ca42a80099
:100af00006fe0700d4c2bf00614060000004e000b1
:100b000003003a000000eb00000f7800600037009f
:100b1000d4c2bf00624060000004e00003003a005d
:100b200030002000000f780059003700d4c2bf0009
:100b3000644060000004e00003003a006000200010
:100b4000000f780052003700d4c2bf006840600038
:100b50000004e00003003a0090002000000f78003d
:100b60004b003700c602a800c622a900c642a80052
:100b7000ca02a800ca22a900ca42a800e3fd0700d1
:100b8000d4c2bf00614060000004e00003003a00ee
:100b900010002000000f78003d003700d4c2bf00d5
:100ba000624060000004e00003003a0040002000c2
:100bb000000f780036003700d4c2bf0064406000e8
:100bc0000004e00003003a0070002000000f7800ed
:100bd0002f003700d4c2bf00684060000004e0006e
:100be00003003a00a0002000000f78002800370022
:100bf000c602a800c622a800c642a900ca02a800d0
:100c0000ca22a800ca42a900c0fd0700d4c2bf0082
:100c1000614060000004e00003003a002000200072
:100c2000000f78001a003700d4c2bf006240600095
:100c30000004e00003003a0050002000000f78009c
:100c400013003700d4c2bf00644060000004e0001d
:100c500003003a0080002000000f78000c003700ed
:100c6000d4c2bf00684060000004e00003003a0006
:100c7000b0002000000f780005003700c602a80071
:100c8000c622a800c642a8000080eb00000f780032
:100c90001e0078000080fa00000006000400fa0040
:100ca000000f780021479800324798000000eb00c1
:100cb000200888000000eb00000888001e00780073
:100cc000100888002e409000634060006340600080
:100cd0000040400000404000004040000041400013
:100ce0004110200091407800f0ccb30000c06000bb
:100cf0000240700004e1b7008c60a8008460a90085
:100d00003e40900067406000674060000040400047
:100d100000404000004040000041400051092000d8
:100d200091407800f0c8b30000c06000024070003d
:100d300095e0b7000080fa00000006000000fa000d
:100d400005e1a8000080fa00000006000000fa009b
:100d500005e1a9000000eb00000888000080fa000f
:100d6000000006000400fa00000f780021479800f8
:100d700032479800f5ff07003e419000ae409000da
:100d80001e007800c5ff0700ecff07000080fa0096
:100d9000000006000000fa008460a9000080fa004c
:100da000000006000000fa00ff3ffc000080fa008f
:100db000000006000000fa000000fc000080fa00bd
:100dc000000006000000fa000060fe000080fa004b
:100dd000000006000200fa003aff0700004f78000a
:100de000010037005a0007008040eb00c08420005b
:100df000730007000080fb000000d100610060006c
:100e00000004e000f7ff3a001e407800e14f400088
:100e1000190032001e4078000004e0001600320085
:100e20001e407800e34f5000130032001e4078004f
:100e3000e94f5000100032001e407800e64f50008d
:100e40000d0032001e407800e84f50000a003200ca
:100e500013fe07000004e000050032008e00780059
:100e60001e4078000000fb000041eb00ccfd0700b5
:100e7000c08420006c0007008040eb0010c0b3006d
:100e8000a700070032000700d3ff37003600f80044
:100e9000809fbe00829fbe00849fbe00869fbe00d2
:100ea0003400f80000c0b300a00188000000fa0080
:100eb000b8ff0700cf0007000080fa003400f900f7
:100ec0004f03be004f02be004f01be004f00be00e8
:100ed0003600f900004006000000fa007ffe07001f
:100ee0000002eb008001eb0012c0b30011c0b300a0
:100ef00020c0b3001ffd0700d3000700418220007f
:100f000082c0b300a06e2000e100070011c0b30052
:100f1000c08420001800070042c0b30031c0b300f5
:100f2000006821005dff070084ff07002e01070015
:100f3000feff37000000fa00af44880050428000f6
:100f40009000900081874700a000900001400100c0
:100f500050428000efb8970021009800a144800023
:100f6000e48040008180570011009800ae4480006a
:100f70000080fa00000006000400fa00000f78006c
:100f80002147980087ff07009e0078000000eb00d3
:100f9000800878002e409000e14060001e0078003c
:100fa000214098009e00780010c0b300c040980017
:100fb00080ff07000000eb000080fa000000060040
:100fc0000600fa00100798004147980075ff0700d7
:100fd0001e00900020409000004f78009e40780056
:100fe0004e4190001e009000aa010700004f7800bb
:100ff0001e4078000080fb004300de0061006000be
:101000000004e000030032009e0090000040eb006e
:10101000a040980067ff07001e4078000080fb009a
:101020000080fa00000006000400fa001007980093
:101030005cff07009e009000c0842000808f50005d
:1010400004003900618720001e009000810f5000cd
:101050000300360020c0b300004f78002b0037009b
:101060001e00900040409000e14f5000030032000d
:1010700060c0b300004f7800240037001e009000cd
:10108000204090000004e0000300320040c0b300a4
:10109000004f78001d0037009e00900010c0b30084
:1010a000a04098001e00900010007800000f78000b
:1010b0001e0078000000e00012003200f0438000c3
:1010c0000000e00003003a001e007800f0438800b2
:1010d00003003700e14380001e007800b000980054
:1010e0001e007800e04388001e007800b0009000e9
:1010f0001e009000010878009e0078000000eb00c0
:10110000b00098000040eb00004f780029ff070076
:101110001e4078000080fb000080fa0000000600fe
:101120000400fa0020479800314798001dff07008f
:101130002e4090000004e00008003a005142800078
:10114000110078000040a0000050a1000060a10044
:101150008008780017ff0700240037003e40900009
:101160000004e00003003a002e409000004f780099
:1011700010003700ae409000014f780050428000d0
:10118000005090001e4f4000704480008144800059
:10119000804078001e407800014f50000200370068
:1011a0002e4090001e4f40002e4090009e4f100099
:1011b000fbff3e001e04e0000b00320051428000a5
:1011c000110078000040a1000050a0000060a100c4
:1011d00080087800504280009e40780001509800be
:1011e00050428000d8010700f2fe07000080fa009c
:1011f000000006000200fa00704480008144800074
:1012000061004000e080480070448800814488000c
:1012100092c8bf00e14f40000600320092c8bf00f4
:101220000040e80092e8b7000000eb00000f7800f3
:101230000200370010002000000f78001e00780028
:101240000080fa00000006000000fa000000eb0039
:10125000404288000000eb00504288000000eb0094
:10126000604488000040eb0092e8b7006000b800de
:1012700070448800814488000000eb00e04388004f
:101280000000eb00f04388000080fa000000060038
:101290000800fa00000f78001107980042479800f4
:1012a0009e00900000802000808f500004003900d4
:1012b000618320001e009000810f50000300360063
:1012c00020002000300798002a003700b5fe0700f4
:1012d0009e0090000000eb00900098004e409000af
:1012e000804078000174a1001e00900024000700d7
:1012f0009e009000110078000040a0000050a10066
:101300000060a100800878009e0090001100780025
:101310000070a100800878001e0090009e007800f8
:101320002100980070448000814480008040780053
:101330001e009000015098004e4090000004e00014
:10134000090035009e009000110078000040a000c8
:101350000050a1000060a000800878008184200077
:101360001e0090003e01070092fe07000000eb0007
:10137000300798003e0090000080fa000000060050
:101380000600fa0010079800414798004e40900070
:10139000ef4f500005003600f0c0b3004047980002
:1013a00010c0b300004f7800020037000040eb008f
:1013b000004f78004e409000ef4060009e0190008a
:1013c000130078008180fb006f81600001ff2f0017
:1013d0000100600002007000800978001e80fb00a0
:1013e0000080fa00000006000000fa006dfe070011
:1013f00074fe070012003700f0438000504288005e
:101400005042800030009000f0438800514280003c
:101410000000eb00b0009800504280008184200062
:101420000f010700f04380000000e00002003a00d6
:101430000000eb00e04388005efe070059fe070055
:10144000f04380000000e000ebff3a006d00370041
:1014500092c8bf000040e90092e8b70060448000f5
:1014600050428800504280000000e0005e003200e0
:1014700050428000805090008140e9000150980067
:10148000590037005042800070009000604488008e
:1014900052428000704480008144800000519800d6
:1014a000504280009000780000072000808060009b
:1014b00000022000808f50000a003a005042800055
:1014c000900078000140a0000150a1000160a00040
:1014d000010878005042800081842000e00007006d
:1014e0003d00370050428000900078000007200047
:1014f0008080600000072000808f50001b003a00b1
:101500002cfe0700504280002000900000000100e7
:1015100024fe070050428000100078006f00600039
:101520000000e00004003a00514280001100780001
:101530000070a10080087800504280009000780080
:1015400000082000008060000000e000220032005f
:101550005142800050428000204890008050980006
:1015600050428000f80007001b0037005042800006
:10157000500090000000e000170032005042800050
:101580005000900080007800504280003d0107002c
:1015900050428000e18720003a010700504280005d
:1015a0008184200037010700514280000000eb00d9
:1015b000d000980051428000110078000040a10046
:1015c0000050a0000060a000800878005042800019
:1015d00081842000a20007006044800050428800ff
:1015e000f4fd0700effd0700504280000000e0001e
:1015f0000400320050428000005090000004e000df
:10160000a0ff320092c8bf000004e00090ff3a0043
:101610004042800050428800504280000000e000bc
:1016200016003200404280003000900040428800a6
:1016300052428000504280001000be0030019800ed
:1016400041019800dbfd07003afe0700d5fd0700c9
:1016500050428000900078000007200080806000e9
:1016600000052000808f500007003a0050428000a3
:10167000818420007a00070003003700cdfd0700b9
:101680006a010700c7fd0700cafd07000080fa00d5
:10169000000006000800fa00100798004147980073
:1016a00052479800504280009000780000072000c8
:1016b0008080600000062000808f50000d003a00fe
:1016c00051428000110078000040a0000050a100ad
:1016d0000060a0008008780051428000110078006e
:1016e0000070a100800878005000200030079800aa
:1016f0005800370050428000b00090000140a00028
:101700000150a1000160a000310098004e409000ff
:101710000004e00027003200504280009000780072
:1017200000082000008060000000e0001a00320085
:1017300051428000110078000070a10080087800fc
:1017400050428000500090000000e0000500320090
:10175000504280008000eb00510098005042800011
:101760000001070080c0b300004f780051428000a4
:10177000110078000040a0000050a1000060a0000f
:10178000800878001e4078000004a0000080fb0064
:10179000300798002f003700514280001100780078
:1017a0000070a00080087800210020003107980018
:1017b000280037005e4090000004e00007003a0077
:1017c00051428000110078000040a1000050a100ab
:1017d0000060a000800878001500370050428000ab
:1017e0009000780000072000808060000005200045
:1017f000808f50000e003a005142800011007800a6
:101800000040a1000050a1000060a0008008780006
:1018100050428000de40900001509800504280000d
:101820009e00900051009800504280004600070042
:1018300051428000110078000070a00080087800fc
:101840009e0090005042800005000700200020000c
:10185000300798003e0090000080fa00000006006b
:101860000c00fa0030079800410798004e009000e5
:1018700090007800210798002e0090000000e00002
:1018800009003a004e009000be0090000108780068
:10189000be0090000000eb00b00098000000eb00dc
:1018a00050079800250037000000eb001007980053
:1018b0003e009000100078006f406000004f7800fc
:1018c00005003700ae009000110798002e00900030
:1018d000b0009000210798002e0090000000e0006a
:1018e000070032009e80fb002e0090001000780060
:1018f0006f4060000080fb00808f5000f1ff3d00d2
:101900001e0090000000e00004003a004e0090002d
:10191000be00900001087800030037001e00900010
:10192000be009000310098003e009000ae00900094
:10193000310098000000eb00500798005e00900016
:101940000080fa00000006000a00fa003007980044
:1019500060448000200798002e0090000000e00006
:1019600008003a00be00900061448800be0090006c
:101970000000eb00f00098000000eb00400798002a
:101980003d0037000000eb00100798002e0090008b
:1019900080509000014f78000b0037002e0090001f
:1019a000100798002e009000f0009000210798008a
:1019b0002e0090000000e000030032002e00900096
:1019c000005090001e4f40002e0090000000e000ec
:1019d000040032003e009000005090009e4f5000e6
:1019e000eeff31002e0090000000e0000400320005
:1019f0002e009000805090001e407800014f500053
:101a00003e009000005090009e4050003e0090002c
:101a1000015098002e0090000000e0000800320005
:101a20003e00900080509000014f78002e00900002
:101a3000005090009e4050002e00900001509800f1
:101a40001e0090000000e00003003a003e009000fd
:101a500060448800030037001e009000be00900024
:101a6000710098003e009000ae0090007100980058
:101a70000000eb00400798004e0090000080fa0044
:101a8000000006000c00fa0030079800410798009b
:101a90004e00900090007800110798000000eb00c5
:101aa000200798003e009000b0009000010f7800e1
:101ab000240037009e0090003e009000808f500070
:101ac0001b003a002e0090000000e00003003a00e6
:101ad0004e0090001e087800030037002e00900092
:101ae0009e00780031009800ce009000c088200051
:101af000808f50000b003a001e00e0000900320009
:101b00003e00900000509000404798001e00780072
:101b1000805090004e40900080c040001e00780031
:101b2000015098000000eb00500798000a003700b1
:101b30009e009000210798001e009000b0009000c9
:101b4000110798001e0090000000e000d9ff3a0045
:101b500010002000500798005e0090000080fa00fe
:101b6000000006000a00fa00300798006044800078
:101b7000100798000000eb00200798003e0090003e
:101b8000f0009000010f7800200037009e009000c8
:101b90003e009000808f500017003a002e00900009
:101ba0000000e00003003a001e0078006044880056
:101bb000030037002e0090009e007800710098000e
:101bc0001e00e000090032003e009000005090002e
:101bd000404798001e007800805090004e409000d2
:101be00080c040001e007800015098000000eb000b
:101bf000400798000a0037009e00900021079800d7
:101c00001e009000f0009000110798001e00900048
:101c10000000e000ddff3a001000200040079800bf
:101c20004e0090000080fa00000006000000fa005c
:081c30000080fa00000006002c
:020000040000fa
:0200000401f009
:04000000ffff0000fe
:020000040000fa
:0200000401f009
:04000400ff7f00007a
:020000040000fa
:0200000401f009
:040008007cff000079
:020000040000fa
:0200000401f009
:04001400ffff0000ea
:020000040000fa
:10000800240e0000240e0000240e0000240e000020
:10001800240e0000240e0000240e0000240e000010
:10002800240e0000240e0000240e000046070000e5
:10003800240e0000240e0000240e0000240e0000f0
:10004800240e0000240e0000240e0000240e0000e0
:10005800240e0000240e0000240e0000240e0000d0
:10006800240e0000240e0000240e0000240e0000c0
:10007800240e0000240e0000240e0000240e0000b0
:10008800240e0000240e0000240e0000240e0000a0
:10009800240e0000240e0000240e0000240e000090
:1000a800240e0000240e0000240e0000240e000080
:1000b800240e0000240e0000240e0000240e000070
:1000c800240e0000240e0000240e0000240e000060
:1000d800240e0000240e0000240e0000240e000050
:1000e800240e0000240e0000240e0000240e000040
:0800f800240e0000240e00009c
:020000040000fa
:10010800240e0000240e0000240e0000240e00001f
:10011800240e0000240e0000240e0000240e00000f
:10012800240e0000240e0000240e000046070000e4
:10013800240e0000240e0000240e0000240e0000ef
:10014800240e0000240e0000240e0000240e0000df
:10015800240e0000240e0000240e0000240e0000cf
:10016800240e0000240e0000240e0000240e0000bf
:10017800240e0000240e0000240e0000240e0000af
:10018800240e0000240e0000240e0000240e00009f
:10019800240e0000240e0000240e0000240e00008f
:1001a800240e0000240e0000240e0000240e00007f
:1001b800240e0000240e0000240e0000240e00006f
:1001c800240e0000240e0000240e0000240e00005f
:1001d800240e0000240e0000240e0000240e00004f
:1001e800240e0000240e0000240e0000240e00003f
:0801f800240e0000240e00009b
:020000040000fa
:101c380000080000980000000000000000000000fc
:020000040000fa
:041c48000000fe009a
:00000001FF
